:100000000C9462000C948A000C948A000C948A0070
:100010000C948A000C948A000C948A000C948A0038
:100020000C948A000C948A000C948A000C948A0028
:100030000C948A000C948A000C948A000C948A0018
:100040000C9403030C948A000C94BC030C94960348
:100050000C948A000C948A000C948A000C948A00F8
:100060000C9474050C948A00000000002400270002
:100070002A000000000023002600290000000000E4
:10008000250028002B0004040404040404040202D4
:100090000202020203030303030301020408102007
:1000A0004080010204081020010204081020000012
:1000B0000008000201000003040700000000000027
:1000C0000000C20911241FBECFEFD8E0DEBFCDBFB4
:1000D00011E0A0E0B1E0E2E5FAE102C005900D9286
:1000E000A237B107D9F723E0A2E7B1E001C01D9222
:1000F000A532B207E1F710E0C2E6D0E004C02197D4
:10010000FE010E94250BC136D107C9F70E941C07CA
:100110000C94270D0C940000CF92DF92EF92FF9287
:100120000F931F93CF93DF936C017A018B01C0E093
:10013000D0E0CE15DF0581F0D8016D918D01D6019B
:10014000ED91FC910190F081E02DC6010995892B7C
:1001500011F02196EECF7E01C701DF91CF911F9163
:100160000F91FF90EF90DF90CF900895FC01538D99
:10017000448D252F30E0842F90E0821B930B541781
:1001800010F0CF96089501970895FC01918D828D0E
:10019000981761F0828DDF01A80FB11D5D968C91DB
:1001A000928D9F5F9F73928F90E008958FEF9FEFE6
:1001B0000895FC01918D828D981731F0828DE80FA2
:1001C000F11D858D90E008958FEF9FEF0895FC015C
:1001D000918D228D892F90E0805C9F4F821B910929
:1001E0008F739927089589EF91E00E94E70021E03D
:1001F000892B09F420E0822F0895FC01848DDF0112
:10020000A80FB11DA35ABF4F2C91848D90E0019689
:100210008F739927848FA689B7892C93A089B18978
:100220008C91837080648C93938D848D981306C019
:100230000288F389E02D80818F7D80830895EF927D
:10024000FF920F931F93CF93DF93EC0181E0888F90
:100250009B8D8C8D981305C0E889F989808185FD77
:1002600026C0F62E0B8D10E00F5F1F4F0F73112766
:10027000E02E8C8DE8120CC00FB607FCFACFE8898F
:10028000F989808185FFF5CFCE010E94FD00F1CF75
:100290008B8DFE01E80FF11DE35AFF4FF0829FB7EF
:1002A000F8940B8FEA89FB89808180620AC09FB72E
:1002B000F894EE89FF896083E889F98980818370E9
:1002C000806480839FBF81E090E0DF91CF911F9198
:1002D0000F91FF90EF900895CF93DF93EC01888DFD
:1002E0008823C9F0EA89FB89808185FD05C0A8893A
:1002F000B9898C9186FD0FC00FB607FCF5CF8081C0
:1003000085FFF2CFA889B9898C9185FFEDCFCE0109
:100310000E94FD00E7CFDF91CF91089580E090E04B
:10032000892B29F00E94F30081110C94000008959C
:10033000089580E090E008950E94120D6115710506
:1003400079F0FB0101900020E9F73197AF01461BDE
:10035000570BDC01ED91FC910280F381E02D0994B3
:1003600080E090E00895EF92FF920F931F93CF9358
:10037000DF93EC01198218821B821A821D821C8273
:1003800061157105B9F17B01FB0101900020E9F7CE
:1003900031978F01061B170BB8016F5F7F4F80E00D
:1003A00090E00E944C0C009759F0998388831B833E
:1003B0000A832C813D81232B81F4FC0110820DC026
:1003C00088819981009711F00E94C30B19821882CD
:1003D0001D821C821B821A820DC01D830C83B701F3
:1003E00088819981DF91CF911F910F91FF90EF90BC
:1003F0000C94200DDF91CF911F910F91FF90EF9002
:100400000895CF93FC01C48121E02093BD01C093E6
:1004100072011092C1011092C0018485682B8DEE8B
:1004200091E00E9498049091C001913208F045C07B
:100430008091C7018111FCCF82E08093C70181E0E8
:100440008093C9018FEF8093C6011092EB019093C6
:10045000EA01ADE9B1E0EAECF1E080E0981721F0C3
:100460002D9121938F5FFACF1092EC018091EC01D6
:10047000CC0FC82BC093EC018091C801813061F48E
:100480001092C8018091EC018093BB008091BC0068
:1004900083FDF8CF85EC01C085EE8093BC00809190
:1004A000C7018230E1F38091C6018F3F31F0809126
:1004B000C601803211F08091C6011092C1011092E4
:1004C000C0011092BD01CF9108950F931F93CF9358
:1004D0008C01C62F0E9401026C2F6460C8010E942B
:1004E00001026C2F6B7FC8010E94010283EC90E037
:1004F0000197F1F7CF911F910F910895EF92FF921D
:100500000F931F93CF93DF93EC0189810E94CB0659
:100510008C018B837C01FF242A8130E0E881F0E0AC
:100520008FEF93E0BF010E94FD0A620F731F6E15EB
:100530007F0554F081E09CEFBF010E94FD0A260F69
:10054000371FE216F3061CF40A8381E001C080E045
:10055000DF91CF911F910F91FF90EF900895CF926F
:10056000DF92EF92FF92CF93DF93EC0189810E949B
:10057000CB068B83C880D12C8FEFC81AD80A0D2CDC
:10058000000CEE08FF0889810E94CB06A7019601A6
:100590002150310941095109DC010E948D0A2FEFD8
:1005A00033E040E050E00E94630A81E0820FDF9177
:1005B000CF91FF90EF90DF90CF9008953FB7F894E0
:1005C0008091990190919A01A0919B01B0919C0119
:1005D00026B5A89B05C02F3F19F00196A11DB11D9E
:1005E0003FBFBA2FA92F982F8827820F911DA11DD9
:1005F000B11DBC01CD0142E0660F771F881F991F16
:100600004A95D1F708951F920F920FB60F921124B9
:100610002F933F938F939F93AF93BF9380919501B7
:1006200090919601A0919701B09198013091940119
:1006300023E0230F2D3720F40196A11DB11D05C025
:1006400026E8230F0296A11DB11D209394018093EB
:10065000950190939601A0939701B0939801809192
:10066000990190919A01A0919B01B0919C010196F2
:10067000A11DB11D8093990190939A01A0939B01B4
:10068000B0939C01BF91AF919F918F913F912F911A
:100690000F900FBE0F901F9018958F929F92AF9260
:1006A000BF92EF92FF920F931F93CF93DF93CDB73B
:1006B000DEB7A1970FB6F894DEBF0FBECDBF7C01A9
:1006C000FA01CB0119A2223008F42AE08E010F5D55
:1006D0001F4F822E912CA12CB12CBF01A50194019A
:1006E0000E94CC0AF901CA01015011096A3014F4C0
:1006F000605D01C0695CD8016C93232B242B252BF2
:1007000061F7B801C7010E949E01A1960FB6F89447
:10071000DEBF0FBECDBFDF91CF911F910F91FF9034
:10072000EF90BF90AF909F908F9008951F920F927F
:100730000FB60F9211242F933F934F935F936F93B4
:100740007F938F939F93AF93BF93EF93FF9389EF23
:1007500091E00E94FD00FF91EF91BF91AF919F91B9
:100760008F917F916F915F914F913F912F910F905A
:100770000FBE0F901F9018951F920F920FB60F92F9
:1007800011242F938F939F93EF93FF93E09109028E
:10079000F0910A028081E0910F02F091100282FD37
:1007A00012C09081809112028F5F8F73209113028B
:1007B000821751F0E0911202F0E0E750FE4F958F62
:1007C0008093120201C08081FF91EF919F918F91E0
:1007D0002F910F900FBE0F901F9018950F931F939E
:1007E000CF93DF938C01C62FD42F607F642B0E94A0
:1007F000650280E1C89FB00111246D2BC801DF9113
:10080000CF911F910F910C94650241E00E94EE037D
:1008100081E090E0089585ED8093BC008091BC005C
:1008200084FDFCCF1092C70108954091FB02262F52
:1008300030E0240F311D21323105DCF42091C70155
:100840002430C9F4FC0180E090E0861758F4309120
:10085000FB022191DC01A552BD4FA30FB11D2C93CA
:100860000196F3CF8091FB02680F6093FB0280E05A
:10087000089581E0089582E0089508950895089507
:10088000E091BF018091BE01E81730F4F0E0E5543B
:10089000FD4F808190E008958FEF9FEF0895909134
:1008A000BF018091BE01981750F4E92FF0E0E554A4
:1008B000FD4F208130E09F5F9093BF0102C02FEF7A
:1008C0003FEFC90108958091BE0190E02091BF01E2
:1008D000821B91090895CF92DF92EF92FF920F93BE
:1008E0001F93CF93DF937C01CB018A012091BD013F
:1008F000222389F0EB016B01C40ED51ECC15DD055A
:1009000069F06991D701ED91FC910190F081E02DA2
:10091000C7010995F3CF642F0E941504C801DF9128
:10092000CF911F910F91FF90EF90DF90CF9008959E
:10093000CF93DF931F92CDB7DEB769832091BD01BE
:100940002223D1F02091C001203240F021E030E09C
:10095000FC013383228380E090E015C08091C101C7
:10096000E82FF0E0E356FE4F998190838F5F8093EC
:10097000C1018093C00105C061E0CE0101960E94D3
:10098000150481E090E00F90DF91CF9108958330BE
:1009900081F028F4813099F08230A1F008958730F9
:1009A000A9F08830B9F08430D1F4809180008F7D37
:1009B00003C0809180008F7780938000089584B574
:1009C0008F7702C084B58F7D84BD08958091B0007B
:1009D0008F7703C08091B0008F7D8093B000089521
:1009E000682F606840E082EA92E00C94EE03CF92B8
:1009F000DF92EF92FF92CF93DF936B017C016DE268
:100A000089EF91E00E941F01EC0144275527BA01AC
:100A10004C195D096E097F092AE089EF91E00E9477
:100A20004D038C0F9D1FDF91CF91FF90EF90DF90D2
:100A3000CF90089540E061E082EA92E00E94EE03E8
:100A40008BE39FE10197F1F78091AB02882319F0C6
:100A500080E00C94F00408950F931F93CF938C01C2
:100A6000C62F0E941A0580E00E94F004F80144811C
:100A700055816081718182EA92E00E948C008FE052
:100A80000E94F0044C2F50E060E070E02AE082EA1F
:100A900092E0CF911F910F910C944D03CF93DF9370
:100AA000282F30E0F901E255FF4F8491F901E65615
:100AB000FF4FD491F901EA57FF4FC491CC2389F03D
:100AC00081110E94C704EC2FF0E0EE0FFF1FE458E5
:100AD000FF4FA591B4918FB7F894EC91ED2BEC9367
:100AE0008FBFDF91CF9108951F920F920FB60F9293
:100AF00011242F933F934F935F936F937F938F9323
:100B00009F93AF93BF93EF93FF938091B900887F3A
:100B1000803609F49CC068F5883209F45BC090F413
:100B2000803109F454C038F4882309F4F6C08830C1
:100B300009F44DC0F6C0883109F44CC0803209F484
:100B40005DC0EFC0803409F468C048F4803309F414
:100B500055C0883309F0E5C08093C601D8C0803500
:100B600009F44FC0883509F45DC0883409F0D9C054
:100B7000D6C0883909F4C7C0A8F4883709F467C01B
:100B800038F4883609F463C0803709F460C0C9C0FE
:100B9000883809F4B8C0803909F45FC0803809F09A
:100BA000C0C05BC0803B09F486C038F4803A09F4C9
:100BB00066C0883A09F47FC0B4C0803C09F4A7C07D
:100BC000883C09F4A4C0883B09F48AC0AAC080917B
:100BD000EC0110C09091EB018091EA01981770F53B
:100BE000E091EB0181E08E0F8093EB01F0E0E653A2
:100BF000FE4F80818093BB0085EC86C08093C60148
:100C00008EC0E091EB0181E08E0F8093EB0180912B
:100C1000BB00F0E0E653FE4F80839091EB018091A2
:100C2000EA016EC0E091EB0181E08E0F8093EB0151
:100C30008091BB00F0E0E653FE4F80838091C901B4
:100C400081116DC081E08093C80184EA61C083E0B6
:100C50008093C70110921D03CFCF80911D03803276
:100C600008F051C0E0911D0381E08E0F80931D03B9
:100C70008091BB00F0E0E350FD4F8083BDCF85EC59
:100C80008093BC001092C70180911D03803230F424
:100C9000E0911D03F0E0E350FD4F108260911D03D1
:100CA00070E0E091C401F091C5018DEF92E00995EB
:100CB00010921D0336C084E08093C7011092FC029D
:100CC0001092FB02E091C201F091C301099580915D
:100CD000FB02811105C081E08093FB021092DB02D0
:100CE000E091FC0281E08E0F8093FC02F0E0E5527F
:100CF000FD4F80818093BB009091FC028091FB02AC
:100D0000981708F479CF85E88093BC000AC085EC79
:100D10008093BC001092C70104C01092C6010E94CB
:100D20000B04FF91EF91BF91AF919F918F917F91B4
:100D30006F915F914F913F912F910F900FBE0F9048
:100D40001F901895CF93DF93282F30E0F901E255DB
:100D5000FF4F8491F901E656FF4FD491F901EA570C
:100D6000FF4FC491CC2391F081110E94C704EC2F56
:100D7000F0E0EE0FFF1FEE58FF4FA591B491EC91FC
:100D8000ED2381E090E021F480E002C080E090E07B
:100D9000DF91CF9108958E3008F08E508770806477
:100DA00080937C0080917A00806480937A008091A7
:100DB0007A0086FDFCCF809178002091790090E048
:100DC000922B08958F929F92AF92BF92CF92DF9213
:100DD000EF92FF926B017C010E94DE024B015C01ED
:100DE000C114D104E104F104F1F00E94DE02DC013F
:100DF000CB0188199909AA09BB09883E9340A1052E
:100E0000B10570F321E0C21AD108E108F10888EEBB
:100E1000880E83E0981EA11CB11CC114D104E1040A
:100E2000F10419F7DDCFFF90EF90DF90CF90BF90E6
:100E3000AF909F908F900895CF93DF9300D000D014
:100E400000D0CDB7DEB7789484B5826084BD84B518
:100E5000816084BD85B5826085BD85B5816085BDB5
:100E600080916E00816080936E001092810080916D
:100E700081008260809381008091810081608093F5
:100E80008100809180008160809380008091B1001A
:100E900084608093B1008091B00081608093B00045
:100EA00080917A00846080937A0080917A008260D9
:100EB00080937A0080917A00816080937A0080919B
:100EC0007A00806880937A001092C10080918C0132
:100ED000811109C080E090E00E945B0A80938B0141
:100EE00081E080938C0180918301811109C081E0B0
:100EF00090E00E945B0A8093820181E080938301ED
:100F000080917A01811109C082E090E00E945B0A21
:100F10008093790181E080937A011092BF01109251
:100F2000BE011092C1011092C0011092C70181E070
:100F30008093C9011092C80182E10E944E0583E1AD
:100F40000E944E058091B9008E7F8093B9008091F8
:100F5000B9008D7F8093B90088E48093B80085E460
:100F60008093BC008DE394E09093C3018093C20111
:100F70008EE394E09093C5018093C4011092A70280
:100F80008091AD02823018F098E09093A702809390
:100F9000AA0262E370E080E090E00E94E2066091C5
:100FA000AE0282EA92E00E94010268EE73E080E005
:100FB00090E00E94E20660E382EA92E00E9465020D
:100FC0000BE416E4C8010197F1F760E382EA92E0CE
:100FD0000E946502C8010197F1F760E382EA92E09E
:100FE0000E94650283E592E00197F1F760E282EAF0
:100FF00092E00E9465026091A702606240E082EA8E
:1010000092E00E94EE0384E08093A80240E06CE04E
:1010100082EA92E00E94EE030E941A0512E0109309
:10102000A90240E066E082EA92E00E94EE0340E01E
:1010300062E082EA92E00E94EE038BE39FE1019777
:10104000F1F788E08093AE0260E082EA92E00E94CD
:101050000102E0910902F0910A021083E091050279
:10106000F09106021082E0910702F09108028FECE5
:10107000808310921102E0910D02F0910E0286E041
:101080008083E0910B02F0910C028081806180836B
:10109000E0910B02F0910C02808188608083E091E6
:1010A0000B02F0910C02808180688083E0910B023A
:1010B000F0910C0280818F7D808311E087EB92E0BC
:1010C0000E947E028823B1F087EB92E00E94AF027B
:1010D000082F80938B0166E371E0CE0101960E9498
:1010E000B301602FCE0101960E942C0589819A815F
:1010F0000E94C30B83EB92E00E947E028823B1F032
:1011000083EB92E00E94AF02082F809382016FE38D
:1011100071E0CE0101960E94B301602FCE010196CD
:101120000E942C0589819A810E94C30B8FEA92E06C
:101130000E947E028823B1F08FEA92E00E94AF0203
:10114000082F8093790168E471E0CE0101960E9436
:10115000B301602FCE0101960E942C0589819A81EE
:101160000E94C30B8FB7F894C0909501D090960160
:10117000E0909701F09098018FBF809199020E94B2
:10118000A206892B29F080917401811131C006C01B
:1011900080919A020E94A206892BA9F710927401ED
:1011A000809199020E94A206892B09F061C080916A
:1011B0009A020E94A206892B09F05AC080919902D6
:1011C0000E94A206892B09F458C080919D0290913B
:1011D0009E02A0919F02B091A002C81AD90AEA0A01
:1011E000FB0A85E1C816D104E104F10408F063C0EC
:1011F000809197020E94A206892B09F085C08091F8
:1012000098020E94A206892B09F07EC081E090918D
:101210009B02981709F452CF80939B02882309F40C
:101220004DCF69E571E089EF91E00E949E01409108
:101230007701509178014F5F5F4F50937801409351
:101240007701052E000C660B770B77FF05C0CB01ED
:10125000BA010E94F70405C02AE089EF91E00E94DC
:101260004D0366E571E089EF91E00E949E0126CF73
:1012700080917301882349F0A1CF80919A020E9446
:10128000A206892B09F0A1CFB3CF109373012FB71A
:10129000F8948091950190919601A0919701B09159
:1012A00098012FBF80939D0290939E02A0939F026E
:1012B000B093A00283CF1093740165E671E089EFCB
:1012C00091E00E949E0140917501509176014F5F1F
:1012D0005F4F5093760140937501052E000C660B0D
:1012E000770B77FF05C0CB01BA010E94F70405C058
:1012F0002AE089EF91E00E944D0366E571E089EFF5
:1013000091E00E949E0174CF80E081CFCF93DF9364
:1013100090E0FC01E656FF4F2491FC01EA57FF4F95
:101320008491882361F190E0880F991FFC01E859AE
:10133000FF4FC591D491FC01E458FF4FA591B491A2
:10134000611109C09FB7F894888120958223888312
:10135000EC912E230BC0623061F49FB7F894888122
:10136000322F309583238883EC912E2B2C939FBFB3
:1013700006C08FB7F894E8812E2B28838FBFDF91AA
:10138000CF910895CF93DF93EDEEF1E013821282B7
:1013900088EE93E0A0E0B0E084839583A683B783D2
:1013A0002AE031E031832083E9EFF1E013821282F9
:1013B00084839583A683B7838CE191E091838083B6
:1013C00085EC90E09587848784EC90E0978786870A
:1013D00080EC90E0918B808B81EC90E0938B828B02
:1013E00082EC90E0958B848B86EC90E0978B868BDB
:1013F000118E128E138E148E60E08EE00E9486098C
:10140000E7EBF2E0C5E0C0838EE0818360E08FE02F
:101410000E948609E3EBF2E0C0838FE0818360E005
:1014200080E10E948609EFEAF2E0C08380E18183D7
:10143000E2EAF2E0138212822EE231E0318320836D
:10144000118697E294838287D2E0D387148661E085
:1014500084E00E94860960E082E00E94860960E0E4
:1014600083E00E94860960E08BE00E94860960E0CC
:101470008CE00E948609E6E9F2E084E08083D18373
:1014800083E082838BE083838CE08483EEE1F3E06E
:1014900081E18083C18386E0828360E081E10E94F4
:1014A000860960E085E00E94860960E086E0DF91C1
:1014B000CF910C948609F999FECF92BD81BDF89A1F
:1014C000992780B50895052E97FB1EF400940E947D
:1014D0007A0A57FD07D00E94CC0A07FC03D04EF4CD
:1014E0000C947A0A50954095309521953F4F4F4F77
:1014F0005F4F089590958095709561957F4F8F4FC0
:101500009F4F08950E94EE0AA59F900DB49F900DE5
:10151000A49F800D911D11240895B7FF0C94820A99
:101520000E94820A821B930B08952F923F924F9242
:101530005F926F927F928F929F92AF92BF92CF9263
:10154000DF92EF92FF920F931F93CF93DF93CDB76C
:10155000DEB7CA1BDB0B0FB6F894DEBF0FBECDBFE4
:1015600009942A88398848885F846E847D848C84B5
:101570009B84AA84B984C884DF80EE80FD800C81BE
:101580001B81AA81B981CE0FD11D0FB6F894DEBFA1
:101590000FBECDBFED010895A1E21A2EAA1BBB1B01
:1015A000FD010DC0AA1FBB1FEE1FFF1FA217B3072F
:1015B000E407F50720F0A21BB30BE40BF50B661F45
:1015C000771F881F991F1A9469F760957095809509
:1015D00090959B01AC01BD01CF010895A29FB00180
:1015E000B39FC001A39F700D811D1124911DB29F57
:1015F000700D811D1124911D089597FB072E16F47F
:10160000009407D077FD09D00E94110B07FC05D08C
:101610003EF4909581959F4F0895709561957F4F09
:101620000895AA1BBB1B51E107C0AA1FBB1FA61729
:10163000B70710F0A61BB70B881F991F5A95A9F77B
:1016400080959095BC01CD010895EE0FFF1F059088
:10165000F491E02D09940F931F93CF93DF93823081
:10166000910510F482E090E0E0912303F0912403CF
:1016700020E030E0A0E0B0E0309719F140815181E6
:101680000281138148175907C8F08417950769F438
:10169000109731F012960C93129713961C9327C053
:1016A000009323031093240322C02115310519F060
:1016B0004217530718F49A01BD01EF01DF01F80149
:1016C000DBCF21153105F9F0281B390B243031050A
:1016D00080F48A819B816115710521F0FB01938360
:1016E000828304C09093240380932303FE013296E7
:1016F00044C0FE01E20FF31F819391932250310900
:10170000398328833AC02091210330912203232B6F
:1017100041F4209102013091030130932203209380
:10172000210320910001309101012115310541F47F
:101730002DB73EB74091040150910501241B350B94
:10174000E0912103F0912203E217F307A0F42E1B8E
:101750003F0B2817390778F0AC014E5F5F4F241715
:10176000350748F04E0F5F1F50932203409321032B
:101770008193919302C0E0E0F0E0CF01DF91CF913F
:101780001F910F910895CF93DF93009709F481C0C3
:10179000FC01329713821282A0912303B09124039B
:1017A000109781F420813181820F931F20912103B2
:1017B000309122032817390751F5F0932203E09363
:1017C000210367C0ED0120E030E0CE17DF0740F4D1
:1017D0004A815B819E0141155105F1F0EA01F5CF87
:1017E000D383C28340815181840F951FC817D907C5
:1017F00059F488819981840F951F02969183808383
:101800008A819B81938382832115310529F4F0938A
:101810002403E09323033DC0E901FB83EA8349915C
:101820005991C40FD51FEC17FD0761F48081918198
:10183000840F951F0296E9019983888382819381A1
:101840009B838A83E0E0F0E012968D919C91139740
:10185000009719F0FD01DC01F7CF8D919C91119754
:101860009D012E5F3F4F820F931F209121033091E6
:1018700022032817390769F4309729F410922403BA
:101880001092230302C013821282B0932203A0930A
:101890002103DF91CF910895A0E0B0E0E2E5FCE004
:1018A0000C94990AEC01009721F4CB010E942B0BB8
:1018B000B4C0FC01E60FF71F9C0122503109E2176A
:1018C000F30708F4A8C0D9010D911C9111970617D0
:1018D0001707B0F00530110508F49BC0C801049744
:1018E0008617970708F495C002501109061B170BBD
:1018F000019311936D937C93CF010E94C30B89C018
:101900005B01A01AB10A4C01800E911EA091230325
:10191000B0912403612C712CE12CF12C109709F467
:1019200046C08D919C911197A815B905B1F56C0130
:1019300042E0C40ED11CCA14DB0478F14C018A18B1
:101940009B08640142E0C40ED11C1296BC90129711
:101950001396AC91B5E0CB16D10440F0B282A383CC
:1019600091828082D9016D937C9309C00E5F1F4FD5
:10197000800F911FF90191838083EB2DFA2FE114E1
:10198000F10431F0D7011396FC93EE93129741C006
:10199000F0932403E09323033CC06816790608F40F
:1019A0003C017D0112960D90BC91A02DB7CF809186
:1019B00021039091220388169906E1F466167706B2
:1019C000C8F48091000190910101009741F48DB716
:1019D0009EB74091040150910501841B950BE817B7
:1019E000F907C8F4F0932203E0932103F90171830E
:1019F00060830FC0CB010E942B0B7C01009759F034
:101A0000A801BE010E94170DCE010E94C30BC701A1
:101A100004C0CE0102C080E090E0CDB7DEB7EEE0BA
:101A20000C94B50A81E090E0F8940C94270DFB012A
:101A3000DC0102C001900D9241505040D8F708954A
:101A4000FB01DC0101900D920020E1F70895F8946C
:021A5000FFCFC6
:101A52000000250320000000000098046B04990197
:101A62003F0463044F044004000000001F018C0087
:101A7200B6006C01E700C500D900000000000504B3
:101A82008C0099019801566F6C756D653A20004281
:101A920072656174683A200050726F706F72746977
:101AA2006F6E733A20000D0A00656E6453656E73A3
:101AB2006F723A2000656E645377697463683A20E6
:021AC200000022
:00000001FF
