:100000000C9462000C948A000C948A000C948A0070
:100010000C948A000C948A000C948A000C948A0038
:100020000C948A000C948A000C948A000C948A0028
:100030000C948A000C948A000C948A000C948A0018
:100040000C94DC020C948A000C9495030C946F03BE
:100050000C948A000C948A000C948A000C948A00F8
:100060000C94DB040C948A0000000000230026009E
:10007000290000000008000201000003040700003E
:1000800000000000000000000000250028002B00F8
:1000900000000000240027002A00040404040404D3
:1000A0000404020202020202030303030303010227
:1000B00004081020408001020408102001020408F6
:1000C0001020AE0811241FBECFEFD8E0DEBFCDBF99
:1000D00011E0A0E0B1E0E8E8F7E102C005900D9280
:1000E000A236B107D9F723E0A2E6B1E001C01D9224
:1000F000A430B207E1F710E0C2E6D0E004C02197D7
:10010000FE010E94C009C136D107C9F70E949206BC
:100110000C94C20B0C940000CF92DF92EF92FF92EE
:100120000F931F93CF93DF936C017A018B01C0E093
:10013000D0E0CE15DF0581F0D8016D918D01D6019B
:10014000ED91FC910190F081E02DC6010995892B7C
:1001500011F02196EECF7E01C701DF91CF911F9163
:100160000F91FF90EF90DF90CF900895FC01538D99
:10017000448D252F30E0842F90E0821B930B541781
:1001800010F0CF96089501970895FC01918D828D0E
:10019000981761F0828DDF01A80FB11D5D968C91DB
:1001A000928D9F5F9F73928F90E008958FEF9FEFE6
:1001B0000895FC01918D828D981731F0828DE80FA2
:1001C000F11D858D90E008958FEF9FEF0895FC015C
:1001D000918D228D892F90E0805C9F4F821B910929
:1001E0008F739927089584EE91E00E94E70021E043
:1001F000892B09F420E0822F0895FC01848DDF0112
:10020000A80FB11DA35ABF4F2C91848D90E0019689
:100210008F739927848FA689B7892C93A089B18978
:100220008C91837080648C93938D848D981306C019
:100230000288F389E02D80818F7D80830895EF927D
:10024000FF920F931F93CF93DF93EC0181E0888F90
:100250009B8D8C8D981305C0E889F989808185FD77
:1002600026C0F62E0B8D10E00F5F1F4F0F73112766
:10027000E02E8C8DE8120CC00FB607FCFACFE8898F
:10028000F989808185FFF5CFCE010E94FD00F1CF75
:100290008B8DFE01E80FF11DE35AFF4FF0829FB7EF
:1002A000F8940B8FEA89FB89808180620AC09FB72E
:1002B000F894EE89FF896083E889F98980818370E9
:1002C000806480839FBF81E090E0DF91CF911F9198
:1002D0000F91FF90EF900895CF93DF93EC01888DFD
:1002E0008823C9F0EA89FB89808185FD05C0A8893A
:1002F000B9898C9186FD0FC00FB607FCF5CF8081C0
:1003000085FFF2CFA889B9898C9185FFEDCFCE0109
:100310000E94FD00E7CFDF91CF91089580E090E04B
:10032000892B29F00E94F30081110C94000008959C
:10033000089580E090E00895CF93DF93EC01288149
:1003400030E02F5F3F4FA901330F660B770B898198
:100350008E3008F08E508770806480937C0080918E
:100360007A00806480937A0080917A0086FDFCCFC9
:10037000A091780080917900B0E0B82B9A01AB0190
:1003800021503109410951090E9450092FEF33E0F2
:1003900040E050E00E942609DA01C9010196A11D42
:1003A000B11D8B83DF91CF9108950E94AD0B611534
:1003B000710579F0FB0101900020E9F73197AF0159
:1003C000461B570BDC01ED91FC910280F381E02D7F
:1003D000099480E090E00895EF92FF920F931F93AD
:1003E000CF93DF93EC01198218821B821A821D823F
:1003F0001C8261157105B9F17B01FB0101900020A0
:10040000E9F731978F01061B170BB8016F5F7F4F1C
:1004100080E090E00E94E70A009759F09983888372
:100420001B830A832C813D81232B81F4FC011082E4
:100430000DC088819981009711F00E945E0A19828F
:1004400018821D821C821B821A820DC01D830C83A0
:10045000B70188819981DF91CF911F910F91FF9012
:10046000EF900C94BB0BDF91CF911F910F91FF90F8
:10047000EF900895CF93FC01C48121E02093A8015F
:10048000C09362011092AC011092AB018485682B7D
:1004900088ED91E00E9471049091AB01913208F0D7
:1004A00045C08091B2018111FCCF82E08093B201FE
:1004B00081E08093B4018FEF8093B1011092D60157
:1004C0009093D501A8E8B1E0E5EBF1E080E0981762
:1004D00021F02D9121938F5FFACF1092D701809157
:1004E000D701CC0FC82BC093D7018091B3018130C5
:1004F00061F41092B3018091D7018093BB00809189
:10050000BC0083FDF8CF85EC01C085EE8093BC0074
:100510008091B2018230E1F38091B1018F3F31F0DF
:100520008091B101803211F08091B1011092AC0143
:100530001092AB011092A801CF9108950F931F93D1
:10054000CF938C01C62F0E943A026C2F6460C801C1
:100550000E943A026C2F6B7FC8010E943A0283EC22
:1005600090E00197F1F7CF911F910F9108953FB758
:10057000F8948091840190918501A0918601B091B9
:10058000870126B5A89B05C02F3F19F00196A11D34
:10059000B11D3FBFBA2FA92F982F8827820F911D19
:1005A000A11DB11DBC01CD0142E0660F771F881F60
:1005B000991F4A95D1F708951F920F920FB60F9287
:1005C00011242F933F938F939F93AF93BF93809169
:1005D000800190918101A0918201B09183013091BD
:1005E0007F0123E0230F2D3720F40196A11DB11DBB
:1005F00005C026E8230F0296A11DB11D20937F019F
:100600008093800190938101A0938201B093830134
:100610008091840190918501A0918601B09187011C
:100620000196A11DB11D8093840190938501A09333
:100630008601B0938701BF91AF919F918F913F91B8
:100640002F910F900FBE0F901F9018958F929F9231
:10065000AF92BF92EF92FF920F931F93CF93DF93CE
:10066000CDB7DEB7A1970FB6F894DEBF0FBECDBFF2
:100670007C01FA01CB0119A2223008F42AE08E0194
:100680000F5D1F4F822E912CA12CB12CBF01A50113
:1006900094010E948F09F901CA01015011096A30C1
:1006A00014F4605D01C0695CD8016C93232B242B8A
:1006B000252B61F7B801C7010E94D701A1960FB69B
:1006C000F894DEBF0FBECDBFDF91CF911F910F9188
:1006D000FF90EF90BF90AF909F908F9008951F92E2
:1006E0000F920FB60F9211242F933F934F935F9366
:1006F0006F937F938F939F93AF93BF93EF93FF93EA
:1007000084EE91E00E94FD00FF91EF91BF91AF91C7
:100710009F918F917F916F915F914F913F912F9119
:100720000F900FBE0F901F9018951F920F920FB64B
:100730000F9211242F938F939F93EF93FF93E09148
:10074000F401F091F5018081E091FA01F091FB0153
:1007500082FD12C090818091FD018F5F8F73209187
:10076000FE01821751F0E091FD01F0E0EC51FE4FE7
:10077000958F8093FD0101C08081FF91EF919F9142
:100780008F912F910F900FBE0F901F9018950F9380
:100790001F93CF93DF938C01C62FD42F607F642BE0
:1007A0000E949E0280E1C89FB00111246D2BC801F8
:1007B000DF91CF911F910F910C949E0241E00E9416
:1007C000C70381E090E0089585ED8093BC0080919F
:1007D000BC0084FDFCCF1092B20108954091DD026F
:1007E000262F30E0240F311D21323105DCF4209119
:1007F000B2012430C9F4FC0180E090E0861758F47F
:100800003091DD022191DC01A354BD4FA30FB11D36
:100810002C930196F3CF8091DD02680F6093DD0287
:1008200080E0089581E0089582E008950895089594
:100830000895E091AA018091A901E81730F4F0E051
:10084000E356FD4F808190E008958FEF9FEF08956C
:100850009091AA018091A901981750F4E92FF0E036
:10086000E356FD4F208130E09F5F9093AA0102C0C4
:100870002FEF3FEFC90108958091A90190E02091E9
:10088000AA01821B91090895CF92DF92EF92FF9205
:100890000F931F93CF93DF937C01CB018A012091AB
:1008A000A801222389F0EB016B01C40ED51ECC15E3
:1008B000DD0569F06991D701ED91FC910190F0811E
:1008C000E02DC7010995F3CF642F0E94EE03C80104
:1008D000DF91CF911F910F91FF90EF90DF90CF901C
:1008E0000895CF93DF931F92CDB7DEB76983209130
:1008F000A8012223D1F02091AB01203240F021E069
:1009000030E0FC013383228380E090E015C08091C9
:10091000AC01E82FF0E0E857FE4F998190838F5F9C
:100920008093AC018093AB0105C061E0CE010196DC
:100930000E94EE0381E090E00F90DF91CF91089547
:10094000682F606840E084E892E00C94C70340E0C0
:1009500061E084E892E00E94C7038BE39FE1019786
:10096000F1F780918D02882319F080E00C94A004A7
:1009700008950F931F93CF938C01C62F0E94A70455
:1009800080E00E94A004F80144815581608171815A
:1009900084E892E00E948C008FE00E94A0044C2F1B
:1009A00050E060E070E02AE084E892E0CF911F918F
:1009B0000F910C9426031F920F920FB60F921124E1
:1009C0002F933F934F935F936F937F938F939F9357
:1009D000AF93BF93EF93FF938091B900887F8036E8
:1009E00009F49CC068F5883209F45BC090F480314A
:1009F00009F454C038F4882309F4F6C0883009F4A7
:100A00004DC0F6C0883109F44CC0803209F45DC095
:100A1000EFC0803409F468C048F4803309F455C04D
:100A2000883309F0E5C08093B101D8C0803509F45E
:100A30004FC0883509F45DC0883409F0D9C0D6C0EC
:100A4000883909F4C7C0A8F4883709F467C038F4B6
:100A5000883609F463C0803709F460C0C9C088389B
:100A600009F4B8C0803909F45FC0803809F0C0C00B
:100A70005BC0803B09F486C038F4803A09F466C054
:100A8000883A09F47FC0B4C0803C09F4A7C0883C10
:100A900009F4A4C0883B09F48AC0AAC08091D70198
:100AA00010C09091D6018091D501981770F5E09112
:100AB000D60181E08E0F8093D601F0E0EB54FE4F1B
:100AC00080818093BB0085EC86C08093B1018EC08D
:100AD000E091D60181E08E0F8093D6018091BB001A
:100AE000F0E0EB54FE4F80839091D6018091D501C8
:100AF0006EC0E091D60181E08E0F8093D601809187
:100B0000BB00F0E0EB54FE4F80838091B401811173
:100B10006DC081E08093B30184EA61C083E080937B
:100B2000B2011092FF02CFCF8091FF02803208F015
:100B300051C0E091FF0281E08E0F8093FF0280910F
:100B4000BB00F0E0E152FD4F8083BDCF85EC809388
:100B5000BC001092B2018091FF02803230F4E0912B
:100B6000FF02F0E0E152FD4F10826091FF0270E061
:100B7000E091AF01F091B0018FED92E009951092F4
:100B8000FF0236C084E08093B2011092DE02109220
:100B9000DD02E091AD01F091AE0109958091DD0299
:100BA000811105C081E08093DD021092BD02E091C9
:100BB000DE0281E08E0F8093DE02F0E0E354FD4F11
:100BC00080818093BB009091DE028091DD029817B6
:100BD00008F479CF85E88093BC000AC085EC809347
:100BE000BC001092B20104C01092B1010E94E40353
:100BF000FF91EF91BF91AF919F918F917F916F91F5
:100C00005F914F913F912F910F900FBE0F901F90CA
:100C10001895833081F028F4813099F08230A1F06A
:100C200008958730A9F08830B9F08430D1F48091EC
:100C300080008F7D03C0809180008F77809380003B
:100C4000089584B58F7702C084B58F7D84BD0895E3
:100C50008091B0008F7703C08091B0008F7D80932A
:100C6000B0000895CF93DF93282F30E0F901EE58BC
:100C7000FF4F8491F901E255FF4FD491F901E656F7
:100C8000FF4FC491CC2389F081110E940906EC2FFB
:100C9000F0E0EE0FFF1FEA57FF4FA591B4918FB719
:100CA000F894EC91ED2BEC938FBFDF91CF910895E9
:100CB0008F929F92AF92BF92CF92DF92EF92FF926C
:100CC0006B017C010E94B7024B015C01C114D1048D
:100CD000E104F104F1F00E94B702DC01CB018819B4
:100CE0009909AA09BB09883E9340A105B10570F393
:100CF00021E0C21AD108E108F10888EE880E83E0ED
:100D0000981EA11CB11CC114D104E104F10419F70F
:100D1000DDCFFF90EF90DF90CF90BF90AF909F908E
:100D20008F900895CF93DF9300D000D000D0CDB73F
:100D3000DEB7789484B5826084BD84B5816084BD5B
:100D400085B5826085BD85B5816085BD80916E0069
:100D5000816080936E00109281008091810082609A
:100D600080938100809181008160809381008091D7
:100D700080008160809380008091B10084608093C6
:100D8000B1008091B00081608093B00080917A00C2
:100D9000846080937A0080917A00826080937A00E8
:100DA00080917A00816080937A0080917A008068D7
:100DB00080937A001092C10080917701811109C05F
:100DC00080E090E00E941E098093760181E080938C
:100DD000770180916E01811109C081E090E00E944D
:100DE0001E0980936D0181E080936E018091650101
:100DF000811109C082E090E00E941E098093640185
:100E000081E0809365011092AA011092A9011092CD
:100E1000AC011092AB011092B20181E08093B40159
:100E20001092B30182E10E94320683E10E943206F1
:100E30008091B9008E7F8093B9008091B9008D7F39
:100E40008093B90088E48093B80085E48093BC0067
:100E500086E194E09093AE018093AD0187E194E048
:100E60009093B0018093AF011092890280918F021C
:100E7000823018F098E09093890280938C0262E3AC
:100E800070E080E090E00E9458066091900284E853
:100E900092E00E943A0268EE73E080E090E00E94E7
:100EA000580660E384E892E00E949E020BE416E498
:100EB000C8010197F1F760E384E892E00E949E0286
:100EC000C8010197F1F760E384E892E00E949E0276
:100ED00083E592E00197F1F760E284E892E00E94F6
:100EE0009E0260918902606240E084E892E00E9484
:100EF000C70384E080938A0240E06CE084E892E0DB
:100F00000E94C7030E94A70412E010938B0240E0E6
:100F100066E084E892E00E94C70340E062E084E873
:100F200092E00E94C7038BE39FE10197F1F788E00D
:100F30008093900260E084E892E00E943A02E0919F
:100F4000F401F091F5011083E091F001F091F101CD
:100F50001082E091F201F091F3018FEC8083109206
:100F6000FC01E091F801F091F90186E08083E091C5
:100F7000F601F091F701808180618083E091F601B4
:100F8000F091F701808188608083E091F601F09113
:100F9000F701808180688083E091F601F091F7018C
:100FA00080818F7D808305E710E091EBE92E90E052
:100FB000F92E2DE9C22E20E0D22E80919C02809342
:100FC0009B0289E992E00E949C0180939C0290918F
:100FD0009B02891356C0809198028093970285E9FD
:100FE00092E00E949C01809398029091970289134D
:100FF0005FC0809194028093930281E992E00E9405
:101000009C018093940290919302891368C0F80127
:101010008491F701A490F601B490BB2091F0811166
:101020000E940906EB2DF0E0EE0FFF1FE859FF4F7D
:10103000A591B4918C918A2191E009F490E0892FD7
:1010400001C080E08170B82E809163018B1509F496
:10105000B4CF66E371E084EE91E00E94D7014B2D9E
:1010600050E060E070E02AE084EE91E00E94260308
:101070006EE371E084EE91E00E94D701B0926301CB
:101080009CCF89E992E00E949C01B82E8093760162
:1010900061E471E0CE0101960E94EC016B2DCE015E
:1010A00001960E94B90489819A810E945E0A93CFB9
:1010B00085E992E00E949C01B82E80936D016AE45C
:1010C00071E0CE0101960E94EC016B2DCE010196DC
:1010D0000E94B90489819A810E945E0A8ACF81E9BF
:1010E00092E00E949C01B82E8093640163E571E058
:1010F000CE0101960E94EC016B2DCE0101960E945B
:10110000B90489819A810E945E0A81CFCF93DF93CF
:1011100090E0FC01E255FF4F2491FC01E656FF4FA1
:1011200084918823C1F090E0880F991FFC01E0575B
:10113000FF4FC591D491FC01EA57FF4FA591B4919F
:101140009FB7F8948881E22FE0958E2388838C9155
:10115000E823EC939FBFDF91CF910895CF93E8ED03
:10116000F1E01382128288EE93E0A0E0B0E0848385
:101170009583A683B7832AE031E031832083E4EEB0
:10118000F1E01382128284839583A683B7838CE176
:1011900091E09183808385EC90E09587848784EC4F
:1011A00090E09787868780EC90E0918B808B81EC34
:1011B00090E0938B828B82EC90E0958B848B86EC15
:1011C00090E0978B868B118E128E138E148E8EE08C
:1011D0000E948608E9E9F2E0C5E0C0838EE08183E1
:1011E0008FE00E948608E5E9F2E0C0838FE081830A
:1011F00080E10E948608E1E9F2E0C08380E181831A
:10120000E4E8F2E0138212822EE231E0318320839F
:10121000118697E29483828782E083871486E1E8CF
:10122000F2E083E08083818382830E94860883E0EA
:101230000E94860883E0CF910C948608F999FECF2E
:1012400092BD81BDF89A992780B50895052E97FB28
:101250001EF400940E943D0957FD07D00E948F099B
:1012600007FC03D04EF40C943D0950954095309501
:1012700021953F4F4F4F5F4F089590958095709502
:1012800061957F4F8F4F9F4F08950E94B109A59F91
:10129000900DB49F900DA49F800D911D1124089571
:1012A000B7FF0C9445090E944509821B930B0895D2
:1012B0002F923F924F925F926F927F928F929F9266
:1012C000AF92BF92CF92DF92EF92FF920F931F9354
:1012D000CF93DF93CDB7DEB7CA1BDB0B0FB6F89405
:1012E000DEBF0FBECDBF09942A88398848885F8445
:1012F0006E847D848C849B84AA84B984C884DF80B6
:10130000EE80FD800C811B81AA81B981CE0FD11D99
:101310000FB6F894DEBF0FBECDBFED010895A1E278
:101320001A2EAA1BBB1BFD010DC0AA1FBB1FEE1F5F
:10133000FF1FA217B307E407F50720F0A21BB30BAA
:10134000E40BF50B661F771F881F991F1A9469F726
:1013500060957095809590959B01AC01BD01CF0182
:101360000895A29FB001B39FC001A39F700D811D7E
:101370001124911DB29F700D811D1124911D08959E
:10138000EE0FFF1F0590F491E02D09940F931F932A
:10139000CF93DF938230910510F482E090E0E091EA
:1013A0000203F091030320E030E0A0E0B0E03097CA
:1013B00019F1408151810281138148175907C8F002
:1013C0008417950769F4109731F012960C931297D1
:1013D00013961C9327C0009302031093030322C0AB
:1013E0002115310519F04217530718F49A01BD0170
:1013F000EF01DF01F801DBCF21153105F9F0281BE2
:10140000390B2430310580F48A819B816115710587
:1014100021F0FB019383828304C0909303038093A4
:101420000203FE01329644C0FE01E20FF31F8193D6
:10143000919322503109398328833AC020910003C7
:1014400030910103232B41F42091020130910301DB
:10145000309301032093000320910001309101019A
:101460002115310541F42DB73EB74091040150914B
:101470000501241B350BE0910003F0910103E217F5
:10148000F307A0F42E1B3F0B2817390778F0AC01A7
:101490004E5F5F4F2417350748F04E0F5F1F509384
:1014A0000103409300038193919302C0E0E0F0E0D8
:1014B000CF01DF91CF911F910F910895CF93DF93CB
:1014C000009709F481C0FC01329713821282A09127
:1014D0000203B0910303109781F420813181820FC0
:1014E000931F20910003309101032817390751F50C
:1014F000F0930103E093000367C0ED0120E030E0CA
:10150000CE17DF0740F44A815B819E0141155105EA
:10151000F1F0EA01F5CFD383C28340815181840F7A
:10152000951FC817D90759F488819981840F951F91
:101530000296918380838A819B8193838283211584
:10154000310529F4F0930303E09302033DC0E90160
:10155000FB83EA8349915991C40FD51FEC17FD070E
:1015600061F480819181840F951F0296E90199832E
:101570008883828193819B838A83E0E0F0E01296E6
:101580008D919C911397009719F0FD01DC01F7CF25
:101590008D919C9111979D012E5F3F4F820F931F5C
:1015A00020910003309101032817390769F430971F
:1015B00029F4109203031092020302C013821282D4
:1015C000B0930103A0930003DF91CF910895A0E0B1
:1015D000B0E0EDEEFAE00C945C09EC01009721F428
:1015E000CB010E94C609B4C0FC01E60FF71F9C01A5
:1015F00022503109E217F30708F4A8C0D9010D9170
:101600001C91119706171707B0F00530110508F463
:101610009BC0C80104978617970708F495C002502D
:101620001109061B170B019311936D937C93CF0146
:101630000E945E0A89C05B01A01AB10A4C01800EAB
:10164000911EA0910203B0910303612C712CE12C37
:10165000F12C109709F446C08D919C911197A81513
:10166000B905B1F56C0142E0C40ED11CCA14DB040B
:1016700078F14C018A189B08640142E0C40ED11C29
:101680001296BC9012971396AC91B5E0CB16D1048C
:1016900040F0B282A38391828082D9016D937C93C2
:1016A00009C00E5F1F4F800F911FF9019183808346
:1016B000EB2DFA2FE114F10431F0D7011396FC93CE
:1016C000EE93129741C0F0930303E09302033CC0F2
:1016D0006816790608F43C017D0112960D90BC91C4
:1016E000A02DB7CF80910003909101038816990631
:1016F000E1F466167706C8F480910001909101012B
:10170000009741F48DB79EB74091040150910501B7
:10171000841B950BE817F907C8F4F0930103E093D5
:101720000003F901718360830FC0CB010E94C609D9
:101730007C01009759F0A801BE010E94B20BCE01B6
:101740000E945E0AC70104C0CE0102C080E090E0A2
:10175000CDB7DEB7EEE00C94780981E090E0F89424
:101760000C94C20BFB01DC0102C001900D924150B0
:101770005040D8F70895FB01DC0101900D92002044
:08178000E1F70895F894FFCF92
:1017880000000403200000000000710444049901D3
:1017980018043C0428041904000000001F018C00F0
:1017A800B6006C01E700C500D90000000000DE03A8
:1017B8008C009901980173746174653A20000D0AD0
:1017C80000566F6C756D653A2000427265617468E9
:1017D8003A200050726F706F7274696F6E733A209E
:0217E8000000FF
:00000001FF
