:100000000C945D000C949E030C9477030C94850073
:100010000C9485000C9485000C9485000C9485004C
:100020000C9485000C9485000C9485000C9485003C
:100030000C9485000C9485000C9485000C9485002C
:100040000C942D030C9485000C9449040C94230407
:100050000C9485000C9485000C9485000C9485000C
:100060000C946D060C94850000000000240027000D
:100070002A0000000000250028002B0004040404CE
:100080000404040402020202020203030303030342
:10009000010204081020408001020408102001021F
:1000A00004081020000000080002010000030407FB
:1000B0000000000000000000880C11241FBECFEFDC
:1000C000D8E0DEBFCDBF11E0A0E0B1E0E6E5F5E2AB
:1000D00002C005900D92A63BB107D9F723E0A6EB2D
:1000E000B1E001C01D92AE39B207E1F710E0CDE5F5
:1000F000D0E004C02197FE010E94880FCC35D107C3
:10010000C9F70E9475080C94A9120C940000089578
:10011000CF92DF92EF92FF920F931F93CF93DF93D3
:100120006C017A018B01C0E0D0E0CE15DF0581F0D3
:10013000D8016D918D01D601ED91FC910190F08176
:10014000E02DC6010995892B11F02196EECF7E0195
:10015000C701DF91CF911F910F91FF90EF90DF903A
:10016000CF900895FC01538D448D252F30E0842FCE
:1001700090E0821B930B541710F0CF9608950197CF
:100180000895FC01918D828D981761F0828DDF01B9
:10019000A80FB11D5D968C91928D9F5F9F73928F7A
:1001A00090E008958FEF9FEF0895FC01918D828D6F
:1001B000981731F0828DE80FF11D858D90E008953C
:1001C0008FEF9FEF0895FC01918D228D892F90E094
:1001D000805C9F4F821B91098F73992708958CE152
:1001E00092E00E94E30021E0892B09F420E0822FB5
:1001F0000895FC01848DDF01A80FB11DA35ABF4FE4
:100200002C91848D90E001968F739927848FA68915
:10021000B7892C93A089B1898C91837080648C9369
:10022000938D848D981306C00288F389E02D808118
:100230008F7D80830895EF92FF920F931F93CF934A
:10024000DF93EC0181E0888F9B8D8C8D981305C026
:10025000E889F989808185FD26C0F62E0B8D10E096
:100260000F5F1F4F0F731127E02E8C8DE8120CC00B
:100270000FB607FCFACFE889F989808185FFF5CFB1
:10028000CE010E94F900F1CF8B8DFE01E80FF11D28
:10029000E35AFF4FF0829FB7F8940B8FEA89FB89EE
:1002A000808180620AC09FB7F894EE89FF896083DD
:1002B000E889F98980818370806480839FBF81E0B1
:1002C00090E0DF91CF911F910F91FF90EF900895F3
:1002D000CF93DF93EC01888D8823C9F0EA89FB89ED
:1002E000808185FD05C0A889B9898C9186FD0FC0E4
:1002F0000FB607FCF5CF808185FFF2CFA889B989B9
:100300008C9185FFEDCFCE010E94F900E7CFDF9100
:10031000CF91089580E090E0892B29F00E94EF00B2
:1003200081110C9400000895089580E090E00895F4
:100330000E949412EF92FF920F931F93CF93DF933B
:10034000EC01198218821B821A821D821C8261159F
:100350007105B9F17B01FB0101900020E9F73197AC
:100360008F01061B170BB8016F5F7F4F80E090E095
:100370000E94CE11009759F0998388831B830A83CA
:100380002C813D81232B81F4FC0110820DC08881DA
:100390009981009711F00E944511198218821D82DF
:1003A0001C821B821A820DC01D830C83B7018881B9
:1003B0009981DF91CF911F910F91FF90EF900C9455
:1003C000A212DF91CF911F910F91FF90EF900895AE
:1003D000CF93FC01C48121E02093E001C093B601DA
:1003E0001092E4011092E3018485682B80E192E091
:1003F0000E9425059091E301913208F045C080915B
:10040000EA018111FCCF82E08093EA0181E08093D0
:10041000EC018FEF8093E90110920E0290930D0290
:10042000A0ECB1E0EDEEF1E080E0981721F02D9125
:1004300021938F5FFACF10920F0280910F02CC0FA1
:10044000C82BC0930F028091EB01813061F41092B0
:10045000EB0180910F028093BB008091BC0083FD73
:10046000F8CF85EC01C085EE8093BC008091EA0155
:100470008230E1F38091E9018F3F31F08091E90111
:10048000803211F08091E9011092E4011092E301B1
:100490001092E001CF9108950F931F93CF938C0199
:1004A000C62F0E94E8016C2F6460C8010E94E80119
:1004B0006C2F6B7FC8010E94E80183EC90E00197EC
:1004C000F1F7CF911F910F910895EF92FF920F9343
:1004D0001F93CF93DF93EC0189810E9424088C0144
:1004E0008B837C01FF242A8130E0E881F0E08FEFEC
:1004F00091E0BF010E94600F620F731F6E157F05B0
:1005000054F081E09EEFBF010E94600F260F371F5D
:10051000E216F3061CF40A8381E001C080E0DF915B
:10052000CF911F910F91FF90EF900895CF92DF929E
:10053000EF92FF92CF93DF93EC0189810E94240810
:100540008B83C880D12CE12CF12C89810E94240856
:10055000A70196012150310941095109DC010E948E
:10056000F00E2FEF33E040E050E00E94C60E81E035
:10057000820FDF91CF91FF90EF90DF90CF900895A1
:100580003FB7F8948091BC019091BD01A091BE014C
:10059000B091BF0126B5A89B05C02F3F19F0019669
:1005A000A11DB11D3FBFBA2FA92F982F8827820FF9
:1005B000911DA11DB11DBC01CD0142E0660F771F49
:1005C000881F991F4A95D1F708950F931F93CF93D2
:1005D000DF93C091BD02D091BE0288819981AA812A
:1005E000BB810196A11DB11D88839983AA83BB831A
:1005F0000E94C0020C811D812E813F81601B710B06
:10060000820B930B0E949F0D20E034E244E759E4F3
:100610000E94FB0F20E030E040E052E40E94000E18
:100620009B01AC0160E070E080E89FE30E94FB0F5B
:1006300020E030E040E752E40E94000E68877987AE
:100640008A879B870E94C0026C837D838E839F83F1
:10065000DF91CF911F910F9108951F920F920FB6C6
:100660000F9211242F933F938F939F93AF93BF9338
:100670008091B9029091BA02A091BB02B091BC02E4
:100680003091BB0123E0230F2D3720F40196A11DEB
:10069000B11D05C026E8230F0296A11DB11D2093B0
:1006A000BB018093B9029093BA02A093BB02B093AE
:1006B000BC028091BC019091BD01A091BE01B0919E
:1006C000BF010196A11DB11D8093BC019093BD0196
:1006D000A093BE01B093BF01BF91AF919F918F9145
:1006E0003F912F910F900FBE0F901F9018951F9262
:1006F0000F920FB60F9211242F933F934F935F9356
:100700006F937F938F939F93AF93BF93EF93FF93D9
:10071000E0910201F09103010995FF91EF91BF91E2
:10072000AF919F918F917F916F915F914F913F9189
:100730002F910F900FBE0F901F9018951F920F9240
:100740000FB60F9211242F933F934F935F936F93A4
:100750007F938F939F93AF93BF93EF93FF93E0911A
:100760000001F09101010995FF91EF91BF91AF91C7
:100770009F918F917F916F915F914F913F912F91B9
:100780000F900FBE0F901F9018956115710579F0AD
:10079000FB0101900020E9F73197AF01461B570B91
:1007A000DC01ED91FC910280F381E02D099480E061
:1007B00090E008958F929F92AF92BF92EF92FF9236
:1007C0000F931F93CF93DF93CDB7DEB7A1970FB6EB
:1007D000F894DEBF0FBECDBF7C01FA01CB0119A298
:1007E000223008F42AE08E010F5D1F4F822E912CDB
:1007F000A12CB12CBF01A50194010E942F0FF9017A
:10080000CA01015011096A3014F4605D01C0695CCD
:10081000D8016C93232B242B252B61F7B801C7013A
:100820000E94C503A1960FB6F894DEBF0FBECDBFE0
:10083000DF91CF911F910F91FF90EF90BF90AF90FC
:100840009F908F9008951F920F920FB60F921124D0
:100850002F933F934F935F936F937F938F939F93C8
:10086000AF93BF93EF93FF938CE192E00E94F90066
:10087000FF91EF91BF91AF919F918F917F916F9178
:100880005F914F913F912F910F900FBE0F901F904E
:1008900018951F920F920FB60F9211242F938F93DA
:1008A0009F93EF93FF93E0912C02F0912D028081B2
:1008B000E0913202F091330282FD12C0908180916A
:1008C00035028F5F8F7320913602821751F0E091CD
:1008D0003502F0E0E45EFD4F958F8093350201C054
:1008E0008081FF91EF919F918F912F910F900FBE7B
:1008F0000F901F9018950F931F93CF93DF938C0148
:10090000C62FD42F607F642B0E944C0280E1C89FC9
:10091000B00111246D2BC801DF91CF911F910F9170
:100920000C944C0241E00E947B0481E090E0089529
:1009300085ED8093BC008091BC0084FDFCCF1092BB
:10094000EA01089540917703262F30E0240F311DEE
:1009500021323105DCF42091EA012430C9F4FC0194
:1009600080E090E0861758F4309177032191DC0104
:10097000A95ABC4FA30FB11D2C930196F3CF8091C0
:100980007703680F6093770380E0089581E008950E
:1009900082E00895089508950895E091E20180911C
:1009A000E101E81730F4F0E0E95CFC4F808190E071
:1009B00008958FEF9FEF08959091E2018091E101FA
:1009C000981750F4E92FF0E0E95CFC4F208130E00B
:1009D0009F5F9093E20102C02FEF3FEFC90108959E
:1009E0008091E10190E02091E201821B910908953C
:1009F000CF92DF92EF92FF920F931F93CF93DF93EB
:100A00007C01CB018A012091E001222389F0EB01D6
:100A10006B01C40ED51ECC15DD0569F06991D701B7
:100A2000ED91FC910190F081E02DC7010995F3CF84
:100A3000642F0E94A204C801DF91CF911F910F91F2
:100A4000FF90EF90DF90CF900895CF93DF931F92A8
:100A5000CDB7DEB769832091E0012223D1F0209148
:100A6000E301203240F021E030E0FC0133832283B7
:100A700080E090E015C08091E401E82FF0E0E054C0
:100A8000FE4F998190838F5F8093E4018093E3010F
:100A900005C061E0CE0101960E94A20481E090E0D1
:100AA0000F90DF91CF910895682F606840E08BE14F
:100AB00093E00C947B0440E061E08BE193E00E94C2
:100AC0007B048BE39FE10197F1F780912403882356
:100AD00019F080E00C94540508950F931F93CF9361
:100AE0008C01C62F0E945B0580E00E945405F8012E
:100AF00044815581608171818BE193E00E9488007F
:100B0000CA3010F48FE001C08EE00E9454054C2FD3
:100B100050E060E070E02AE08BE193E0CF911F911C
:100B20000F910C94DA038F929F92AF92BF92CF9263
:100B3000DF92EF92FF920F931F93CF93DF936B019E
:100B40007C01142F9B01AC010E94A810882319F08E
:100B50006AEA71E027C046015701E894B7F82FEF21
:100B60003FEF4FE75FE7C501B4010E94A810811174
:100B70000DC02FEF3FEF4FE75FE7C501B4010E94C3
:100B80009A0D18161CF46EEA71E00CC02FEF3FEFBF
:100B90004FE75FE4C701B6010E94A310181694F452
:100BA00062EB71E08CE192E0DF91CF911F910F91A8
:100BB000FF90EF90DF90CF90BF90AF909F908F907D
:100BC0000C94C5032FEF3FEF4FE75FECC701B60171
:100BD0000E949A0D87FDE4CF20E030E0A901C70113
:100BE000B6010E949A0D87FF0BC06DE28CE192E086
:100BF0000E941B01EC01F7FAF094F7F8F09402C0A0
:100C0000C0E0D0E000E060E070E080E09FE310171B
:100C100041F020E030E040E251E40E94FB0F0F5F22
:100C2000F6CFA70196010E948F0F6B017C010E94F5
:100C300074104B015C012AE0AB01BC018CE192E035
:100C40000E94DA03C80FD91F1123C9F1C501B401ED
:100C50000E949F0D9B01AC01C701B6010E948E0F3F
:100C60006B017C016EE28CE192E00E941B01C80FD7
:100C7000D91F20E030E040E251E4C701B6010E94F4
:100C8000000E4B015C010E9474106B01E12CF12CF1
:100C90002AE0B701A6018CE192E00E94DA03C80FB6
:100CA000D91FC701B6010E949F0D9B01AC01C50170
:100CB000B4010E948E0F6B017C011150D1F6CE0160
:100CC000DF91CF911F910F91FF90EF90DF90CF9028
:100CD000BF90AF909F908F9008951F920F920FB684
:100CE0000F9211242F933F934F935F936F937F93B2
:100CF0008F939F93AF93BF93EF93FF938091B9002E
:100D0000887F803609F49CC068F5883209F45BC09E
:100D100090F4803109F454C038F4882309F4F6C003
:100D2000883009F44DC0F6C0883109F44CC08032D7
:100D300009F45DC0EFC0803409F468C048F4803322
:100D400009F455C0883309F0E5C08093E901D8C0A3
:100D5000803509F44FC0883509F45DC0883409F046
:100D6000D9C0D6C0883909F4C7C0A8F4883709F4B7
:100D700067C038F4883609F463C0803709F460C06E
:100D8000C9C0883809F4B8C0803909F45FC0803818
:100D900009F0C0C05BC0803B09F486C038F4803ADB
:100DA00009F466C0883A09F47FC0B4C0803C09F4F5
:100DB000A7C0883C09F4A4C0883B09F48AC0AAC033
:100DC00080910F0210C090910E0280910D02981731
:100DD00070F5E0910E0281E08E0F80930E02F0E03C
:100DE000E351FE4F80818093BB0085EC86C08093E9
:100DF000E9018EC0E0910E0281E08E0F80930E0219
:100E00008091BB00F0E0E351FE4F808390910E0291
:100E100080910D026EC0E0910E0281E08E0F8093F2
:100E20000E028091BB00F0E0E351FE4F8083809181
:100E3000EC0181116DC081E08093EB0184EA61C017
:100E400083E08093EA0110929903CFCF80919903B8
:100E5000803208F051C0E091990381E08E0F8093B9
:100E600099038091BB00F0E0E758FC4F8083BDCF31
:100E700085EC8093BC001092EA0180919903803246
:100E800030F4E0919903F0E0E758FC4F1082609154
:100E9000990370E0E091E701F091E80189E793E0C0
:100EA00009951092990336C084E08093EA0110926C
:100EB000780310927703E091E501F091E60109953E
:100EC00080917703811105C081E0809377031092B0
:100ED0005703E091780381E08E0F80937803F0E070
:100EE000E95AFC4F80818093BB00909178038091F8
:100EF0007703981708F479CF85E88093BC000AC07F
:100F000085EC8093BC001092EA0104C01092E901C4
:100F10000E949804FF91EF91BF91AF919F918F91A3
:100F20007F916F915F914F913F912F910F900FBEE5
:100F30000F901F90189590E0FC01EC55FF4F249105
:100F4000FC01E057FF4F3491FC01E458FF4FE4915E
:100F5000EE2309F43CC0222339F1233091F038F418
:100F60002130A9F0223001F584B58F7D12C02730E1
:100F700091F02830A1F02430B9F4809180008F7D69
:100F800003C0809180008F77809380000DC084B56E
:100F90008F7784BD09C08091B0008F7703C08091A6
:100FA000B0008F7D8093B000F0E0EE0FFF1FEE5891
:100FB000FF4FA591B4919FB7F894611104C08C9133
:100FC0003095382302C0EC913E2B3C939FBF08958F
:100FD000CF93DF9390E0FC01E057FF4F2491FC0199
:100FE000E458FF4F8491882361F190E0880F991FA6
:100FF000FC01E859FF4FC591D491FC01EE58FF4F19
:10100000A591B491611109C09FB7F894888120958A
:1010100082238883EC912E230BC0623061F49FB74A
:10102000F8948881322F309583238883EC912E2B7E
:101030002C939FBF06C08FB7F894E8812E2B28838E
:101040008FBFDF91CF9108958E3008F08E5087705A
:10105000806480937C0080917A00806480937A0021
:1010600080917A0086FDFCCF8091780020917900F4
:1010700090E0922B08958F929F92AF92BF92CF9261
:10108000DF92EF92FF926B017C010E94C0024B0144
:101090005C01C114D104E104F104F1F00E94C0022A
:1010A000DC01CB0188199909AA09BB09883E934044
:1010B000A105B10570F321E0C21AD108E108F108D9
:1010C00088EE880E83E0981EA11CB11CC114D104C7
:1010D000E104F10419F7DDCFFF90EF90DF90CF909E
:1010E000BF90AF909F908F900895CF93DF93CDB72F
:1010F000DEB767970FB6F894DEBF0FBECDBF78940A
:1011000084B5826084BD84B5816084BD85B582600C
:1011100085BD85B5816085BD80916E0081608093BD
:101120006E00109281008091810082608093810026
:101130008091810081608093810080918000816036
:10114000809380008091B10084608093B100809191
:10115000B00081608093B00080917A0084608093B9
:101160007A0080917A00826080937A0080917A0080
:10117000816080937A0080917A00806880937A0001
:101180001092C1001092E2011092E1011092E4016C
:101190001092E3011092EA0181E08093EC01109239
:1011A000EB0161E082E10E949B0761E083E10E9424
:1011B0009B078091B9008E7F8093B9008091B90020
:1011C0008D7F8093B90088E48093B80085E4809394
:1011D000BC008AEC94E09093E6018093E5018BECEF
:1011E00094E09093E8018093E701109220038091AE
:1011F0002603823018F098E0909320038093230315
:1012000062E370E080E090E00E943B086091270379
:101210008BE193E00E94E80168EE73E080E090E0EB
:101220000E943B0860E38BE193E00E944C020BE4D8
:1012300016E4C8010197F1F760E38BE193E00E94A7
:101240004C02C8010197F1F760E38BE193E00E9443
:101250004C0283E592E00197F1F760E28BE193E0C5
:101260000E944C0260912003606240E08BE193E0B9
:101270000E947B0484E08093210340E06CE08BE1DA
:1012800093E00E947B040E945B0512E0109322030E
:1012900040E066E08BE193E00E947B0440E062E086
:1012A0008BE193E00E947B048BE39FE10197F1F7D0
:1012B00088E08093270360E08BE193E00E94E801DF
:1012C000E0912C02F0912D021083E0912802F09120
:1012D00029021082E0912A02F0912B028FEC808388
:1012E00010923402E0913002F091310286E0808366
:1012F000E0912E02F0912F02808180618083E09145
:101300002E02F0912F02808188608083E0912E026E
:10131000F0912F02808180688083E0912E02F0910D
:101320002F0280818F7D808380910D03811148C0C1
:10133000E091F102F091F202C080D180E280F3806E
:10134000C092F902D092FA02E092FB02F092FC0203
:10135000E091EF02F091F00280819181A281B3814E
:101360008093FD029093FE02A093FF02B0930003CE
:101370008090090390900A03A0900B03B0900C0397
:10138000A5019401C701B6010E94A310181684F0AC
:101390008090050390900603A0900703B090080387
:1013A000A5019401C701B6010E949A0D87FF08C0EC
:1013B0008092F9029092FA02A092FB02B092FC0293
:1013C00081E080930D0380E393E00E94650288230F
:1013D000B1F080E393E00E949602182F80933603C9
:1013E0006AE371E0CE0101960E949A01612FCE015D
:1013F00001960E946D0589819A810E9445118CE2B7
:1014000093E00E9465028823B1F08CE293E00E9491
:101410009602182F8093350363E471E0CE010196A4
:101420000E949A01612FCE0101960E946D0589816B
:101430009A810E94451188E293E00E946502882308
:10144000B1F088E293E00E949602182F8093340353
:101450006CE471E0CE0101960E949A01612FCE01E9
:1014600001960E946D0589819A810E9445118FB76E
:10147000F8942091B9023091BA024091BB02509188
:10148000BC022B873C874D875E878FBF80911703F7
:1014900090911803A0911903B0911A038093CF0281
:1014A0009093D002A093D102B093D2026091350301
:1014B0003AEF639FB0011124072E000C880B990BA3
:1014C0000E94A10D6093C7027093C8028093C90265
:1014D0009093CA0280910D03882309F44AC18FB703
:1014E000F8942091B9023091BA024091BB02509118
:1014F000BC022C8B3D8B4E8B5F8B8FBF8091F50296
:101500009091F602A091F702B091F8024C895D89A2
:101510006E897F89481B590B6A0B7B0B80910103F5
:1015200090910203A0910303B09104034817590757
:101530006A077B0708F41DC1E091EF02F091F00209
:1015400080819181A281B3818F839887A987BA878F
:10155000E091F302F091F4029C01AD016081718190
:10156000828193810E948E0F4B015C012091FD02CC
:101570003091FE024091FF02509100036F81788507
:1015800089859A850E948E0F6B017C012091E30270
:101590003091E4024091E5025091E602C501B401A8
:1015A0000E94000E2091F9023091FA024091FB0254
:1015B0005091FC020E948F0F2B013C016093F902B5
:1015C0007093FA028093FB029093FC0290910E03B9
:1015D0009F8791111AC02091DF023091E002409163
:1015E000E1025091E202C701B6010E94000E9B0188
:1015F000AC01C301B2010E948E0F6093F902709397
:10160000FA028093FB029093FC024090F902509002
:10161000FA026090FB027090FC02109109030091A5
:101620000A0330900B0320900C03212F302F432D01
:10163000522DC301B2010E94A31018162CF4812F61
:10164000902FA32DB22D16C02091050330910603D3
:101650004091070350910803288B398B4A8B5B8B91
:10166000C301B2010E949A0D87FF0CC08889998935
:10167000AA89BB898093F9029093FA02A093FB0296
:10168000B093FC029F85992379F02091DF0230917D
:10169000E0024091E1025091E202C501B4010E94D2
:1016A000000E4B015C0103C0812C912C5401209150
:1016B000E7023091E8024091E9025091EA02C70145
:1016C000B6010E94000E9B01AC016091F90270917D
:1016D000FA028091FB029091FC020E948E0FA501FC
:1016E00094010E948F0F6B017C019B01AC01612F63
:1016F000702F832D922D0E949A0D87FD16C0109198
:101700000503009106033090070320900803212F62
:10171000302F432D522DB601C7010E949A0D87FD2F
:1017200004C01C2D0D2D3E2C2F2CE091F102F091C8
:10173000F202812F902FA32DB22D80839183A2835B
:10174000B3832F81388549855A852093FD023093D4
:10175000FE024093FF02509300038C899D89AE895D
:10176000BF898093F5029093F602A093F702B0939D
:10177000F8026091CB027091CC028091CD029091E1
:10178000CE020E946D106B017C018B0161E08CE048
:101790000E94E807C114D10411F460E004C00F3FB7
:1017A000110529F461E08CE00E949B0743C0E0EB47
:1017B000F0E084918330F9F048F48130B9F0823060
:1017C000A1F584B5806284BDC8BC34C08730E9F01F
:1017D000883019F1843049F58091800080628093CF
:1017E0008000D0928B00C0928A0024C084B58068AB
:1017F00084BDC7BC1FC0809180008068809380003A
:10180000D0928900C092880015C08091B000806895
:101810008093B000C092B3000DC08091B000806290
:101820008093B000C092B40005C0003811050CF0E0
:10183000B9CFB3CF8091B7019091B801A091B90110
:10184000B091BA012B853C854D855E85281B390BEF
:101850004A0B5B0BDA01C901853F9140A105B10537
:1018600008F453C06AE571E08CE192E00E94C50380
:1018700040910F0350911003609111037091120376
:101880002AE08CE192E00E94DA0369E771E08CE1E2
:1018900092E00E94C5036CE771E08CE192E00E9447
:1018A000C5036091CF027091D0028091D1029091D6
:1018B000D20242E00E94930569E771E08CE192E078
:1018C0000E94C50364E971E08CE192E00E94C503C7
:1018D0006091CB027091CC028091CD029091CE02AA
:1018E00042E00E94930569E771E08CE192E00E947A
:1018F000C5038B859C85AD85BE858093B70190938C
:10190000B801A093B901B093BA010E948A015BCDDE
:10191000CF93E0E1F2E01382128288EE93E0A0E040
:10192000B0E084839583A683B7832EE031E03183D2
:101930002083ECE1F2E01382128284839583A683F4
:10194000B78380E291E09183808385EC90E0958776
:10195000848784EC90E09787868780EC90E0918B79
:10196000808B81EC90E0938B828B82EC90E0958B66
:10197000848B86EC90E0978B868B118E128E138E63
:10198000148E80E090E00E94BE0E8093360381E0CA
:1019900090E00E94BE0E8093350382E090E00E94AA
:1019A000BE0E8093340360E08EE00E94E807E0E31F
:1019B000F3E0CAE0C0838EE0818360E08FE00E94A4
:1019C000E807ECE2F3E0C0838FE0818360E080E130
:1019D0000E94E807E8E2F3E0C08380E18183EBE165
:1019E000F3E01382128222E331E0318320831186F7
:1019F00097E29483828782E0838714868FE093E066
:101A00009093BE028093BD0260E082E00E94E807EE
:101A100085EE92E09093010180930001E9E6F0E009
:101A2000808183608083E89AE3EDF2E08BEC92E0C2
:101A3000978F868F8FEC92E0958F848F87EC92E062
:101A400091A380A312AE12AA13AA14AA15AA80E029
:101A500090E0AFE7B3E486AB97ABA0AFB1AF84E65D
:101A600090E0A0E0B0E086A797A7A0ABB1AB118E45
:101A7000108E81E090E0938F828F83AF80E090E0C2
:101A8000A0E4B0E480839183A283B38340E050E07C
:101A900060E070E444835583668377834DEC5CECAF
:101AA0006CEC7DE3408751876287738784879587D5
:101AB000A687B7878DEC9CECACE4BEE3808B918B62
:101AC000A28BB38B80E090E0A0E8BFE3848B958B82
:101AD000A68BB78B2FB7F8948091B9029091BA0278
:101AE000A091BB02B091BC022FBF46A557A560A92B
:101AF00071A9841B950BA60BB70B82A393A3A4A378
:101B0000B5A361E08CE00E94E807EFEBF2E081E131
:101B1000808385E0818386E0828360E081E10E94AA
:101B2000E80760E085E00E94E80760E086E0CF918A
:101B30000C94E8070E94DC0D08F481E00895E89415
:101B400009C097FB3EF490958095709561957F4F05
:101B50008F4F9F4F9923A9F0F92F96E9BB279395B3
:101B6000F695879577956795B795F111F8CFFAF4C3
:101B7000BB0F11F460FF1BC06F5F7F4F8F4F9F4FF4
:101B800016C0882311F096E911C0772321F09EE852
:101B9000872F762F05C0662371F096E8862F70E0B8
:101BA00060E02AF09A95660F771F881FDAF7880F92
:101BB0009695879597F90895990F0008550FAA0BE8
:101BC000E0E8FEEF16161706E807F907C0F0121650
:101BD0001306E407F50798F0621B730B840B950B53
:101BE00039F40A2661F0232B242B252B21F40895A8
:101BF0000A2609F4A140A6958FEF811D811D089545
:101C00000E94130E0C94840E0E94760E38F00E94EF
:101C10007D0E20F0952311F00C946D0E0C94730E34
:101C200011240C94B80E0E94950E70F3959FC1F389
:101C3000950F50E0551F629FF001729FBB27F00D7A
:101C4000B11D639FAA27F00DB11DAA1F649F6627CF
:101C5000B00DA11D661F829F2227B00DA11D621F1E
:101C6000739FB00DA11D621F839FA00D611D221FD8
:101C7000749F3327A00D611D231F849F600D211DBC
:101C8000822F762F6A2F11249F5750409AF0F1F03F
:101C900088234AF0EE0FFF1FBB1F661F771F881FA8
:101CA00091505040A9F79E3F510580F00C946D0E65
:101CB0000C94B80E5F3FE4F3983ED4F38695779585
:101CC0006795B795F795E7959F5FC1F7FE2B880F4E
:101CD000911D9695879597F9089597F99F6780E8E4
:101CE00070E060E008959FEF80EC089500240A946E
:101CF0001616170618060906089500240A941216E7
:101D00001306140605060895092E0394000C11F419
:101D1000882352F0BB0F40F4BF2B11F460FF04C0C6
:101D20006F5F7F4F8F4F9F4F089557FD9058440F1F
:101D3000551F59F05F3F71F04795880F97FB991F2A
:101D400061F09F3F79F087950895121613061406E7
:101D5000551FF2CF4695F1DF08C016161706180674
:101D6000991FF1CF86957105610508940895E8944F
:101D7000BB2766277727CB0197F90895F999FECFFE
:101D800092BD81BDF89A992780B50895052E97FBDD
:101D90001EF400940E94DD0E57FD07D00E942F0F05
:101DA00007FC03D04EF40C94DD0E50954095309511
:101DB00021953F4F4F4F5F4F0895909580957095B7
:101DC00061957F4F8F4F9F4F08950E94510FA59FA0
:101DD000900DB49F900DA49F800D911D1124089526
:101DE000B7FF0C94E50E0E94E50E821B930B08953D
:101DF0002F923F924F925F926F927F928F929F921B
:101E0000AF92BF92CF92DF92EF92FF920F931F9308
:101E1000CF93DF93CDB7DEB7CA1BDB0B0FB6F894B9
:101E2000DEBF0FBECDBF09942A88398848885F84F9
:101E30006E847D848C849B84AA84B984C884DF806A
:101E4000EE80FD800C811B81AA81B981CE0FD11D4E
:101E50000FB6F894DEBF0FBECDBFED010895A1E22D
:101E60001A2EAA1BBB1BFD010DC0AA1FBB1FEE1F14
:101E7000FF1FA217B307E407F50720F0A21BB30B5F
:101E8000E40BF50B661F771F881F991F1A9469F7DB
:101E900060957095809590959B01AC01BD01CF0137
:101EA0000895A29FB001B39FC001A39F700D811D33
:101EB0001124911DB29F700D811D1124911D089553
:101EC00097FB072E16F4009407D077FD09D00E94E7
:101ED000740F07FC05D03EF4909581959F4F0895AF
:101EE000709561957F4F0895AA1BBB1B51E107C0F8
:101EF000AA1FBB1FA617B70710F0A61BB70B881F9A
:101F0000991F5A95A9F780959095BC01CD01089528
:101F1000EE0FFF1F0590F491E02D09945058BB2758
:101F2000AA270E94A60F0C94840E0E94760E38F009
:101F30000E947D0E20F039F49F3F19F426F40C9492
:101F4000730E0EF4E095E7FB0C946D0EE92F0E94E2
:101F5000950E58F3BA17620773078407950720F0A8
:101F600079F4A6F50C94B70E0EF4E0950B2EBA2F6B
:101F7000A02D0B01B90190010C01CA01A00111248F
:101F8000FF27591B99F0593F50F4503E68F11A163B
:101F9000F040A22F232F342F4427585FF3CF4695CC
:101FA00037952795A795F0405395C9F77EF41F16EE
:101FB000BA0B620B730B840BBAF09150A1F0FF0FB8
:101FC000BB1F661F771F881FC2F70EC0BA0F621FA4
:101FD000731F841F48F4879577956795B795F79594
:101FE0009E3F08F0B0CF9395880F08F09927EE0F29
:101FF0009795879508950E940F100C94840E0E9467
:102000007D0E58F00E94760E40F029F45F3F29F0D3
:102010000C946D0E51110C94B80E0C94730E0E941A
:10202000950E68F39923B1F3552391F3951B550B46
:10203000BB27AA2762177307840738F09F5F5F4F9B
:10204000220F331F441FAA1FA9F335D00E2E3AF0DA
:10205000E0E832D091505040E695001CCAF72BD0F2
:10206000FE2F29D0660F771F881FBB1F2617370743
:102070004807AB07B0E809F0BB0B802DBF01FF2775
:1020800093585F4F3AF09E3F510578F00C946D0ED7
:102090000C94B80E5F3FE4F3983ED4F386957795A1
:1020A0006795B795F7959F5FC9F7880F911D96952E
:1020B000879597F90895E1E0660F771F881FBB1F8A
:1020C000621773078407BA0720F0621B730B840B37
:1020D000BA0BEE1F88F7E09508950E94741068947B
:1020E000B1110C94B80E08950E949D0E88F09F5770
:1020F00098F0B92F9927B751B0F0E1F0660F771F2C
:10210000881F991F1AF0BA95C9F714C0B13091F021
:102110000E94B70EB1E008950C94B70E672F782F88
:102120008827B85F39F0B93FCCF3869577956795E6
:10213000B395D9F73EF490958095709561957F4F52
:102140008F4F9F4F08950E94DC0D08F48FEF089584
:102150000E94DC0D880B990B08950F931F93CF936A
:10216000DF938230910510F482E090E0E0919C03CF
:10217000F0919D0320E030E0A0E0B0E0309719F14D
:10218000408151810281138148175907C8F0841793
:10219000950769F4109731F012960C9312971396E5
:1021A0001C9327C000939C0310939D0322C021150C
:1021B000310519F04217530718F49A01BD01EF01D8
:1021C000DF01F801DBCF21153105F9F0281B390BB0
:1021D0002430310580F48A819B816115710521F0DD
:1021E000FB019383828304C090939D0380939C039F
:1021F000FE01329644C0FE01E20FF31F81939193DA
:1022000022503109398328833AC020919A033091B2
:102210009B03232B41F42091060130910701309359
:102220009B0320939A03209104013091050121150D
:10223000310541F42DB73EB7409108015091090195
:10224000241B350BE0919A03F0919B03E217F307EF
:10225000A0F42E1B3F0B2817390778F0AC014E5F16
:102260005F4F2417350748F04E0F5F1F50939B03B5
:1022700040939A038193919302C0E0E0F0E0CF0194
:10228000DF91CF911F910F910895CF93DF93009726
:1022900009F481C0FC01329713821282A0919C0341
:1022A000B0919D03109781F420813181820F931F9B
:1022B00020919A0330919B032817390751F5F09329
:1022C0009B03E0939A0367C0ED0120E030E0CE1756
:1022D000DF0740F44A815B819E0141155105F1F011
:1022E000EA01F5CFD383C28340815181840F951FCA
:1022F000C817D90759F488819981840F951F0296D0
:10230000918380838A819B81938382832115310508
:1023100029F4F0939D03E0939C033DC0E901FB8306
:10232000EA8349915991C40FD51FEC17FD0761F459
:1023300080819181840F951F0296E901998388839A
:10234000828193819B838A83E0E0F0E012968D91F5
:102350009C911397009719F0FD01DC01F7CF8D9147
:102360009C9111979D012E5F3F4F820F931F2091EB
:102370009A0330919B032817390769F4309729F4A1
:1023800010929D0310929C0302C013821282B0939C
:102390009B03A0939A03DF91CF910895A0E0B0E052
:1023A000E4EDF1E10C94FC0EEC01009721F4CB017B
:1023B0000E94AD10B4C0FC01E60FF71F9C01225033
:1023C0003109E217F30708F4A8C0D9010D911C9157
:1023D000119706171707B0F00530110508F49BC0D8
:1023E000C80104978617970708F495C00250110991
:1023F000061B170B019311936D937C93CF010E94E1
:10240000451189C05B01A01AB10A4C01800E911ED2
:10241000A0919C03B0919D03612C712CE12CF12CB7
:10242000109709F446C08D919C911197A815B90594
:10243000B1F56C0142E0C40ED11CCA14DB0478F182
:102440004C018A189B08640142E0C40ED11C12960C
:10245000BC9012971396AC91B5E0CB16D10440F026
:10246000B282A38391828082D9016D937C9309C04B
:102470000E5F1F4F800F911FF90191838083EB2D19
:10248000FA2FE114F10431F0D7011396FC93EE9387
:10249000129741C0F0939D03E0939C033CC06816E3
:1024A000790608F43C017D0112960D90BC91A02D97
:1024B000B7CF80919A0390919B0388169906E1F417
:1024C00066167706C8F48091040190910501009783
:1024D00041F48DB79EB74091080150910901841BCA
:1024E000950BE817F907C8F4F0939B03E0939A0360
:1024F000F901718360830FC0CB010E94AD107C0194
:10250000009759F0A801BE010E949912CE010E94C5
:102510004511C70104C0CE0102C080E090E0CDB7F4
:10252000DEB7EEE00C94180F81E090E0F8940C9484
:10253000A912FB01DC0102C001900D9241505040F4
:10254000D8F70895FB01DC0101900D920020E1F71E
:062550000895F894FFCF8E
:102556008700870000009E0320000000000025057C
:10256600F8049501CC04F004DC04CD04000000005E
:102576001B018800B2006801E300C100D50000001D
:1025860000009204880095019401566F6C756D6584
:102596003A20004272656174683A200050726F708A
:1025A6006F7274696F6E733A20005B4445425547FB
:1025B6005D3A20456E636F6465725F496E6B726546
:1025C6006D656E7473203D20000D0A005B44454224
:1025D60055475D3A20456E636F6465725F52706D54
:1025E600203D20005B44454255475D3A204D6F74BF
:1025F6006F725F50574D203D20006E616E00696E10
:0626060066006F7666001D
:00000001FF
