:100000000C945D000C945A030C9433030C948500FB
:100010000C9485000C9485000C9485000C9485004C
:100020000C9485000C9485000C9485000C9485003C
:100030000C9485000C9485000C9485000C9485002C
:100040000C94E9020C9485000C94F0030C94CA0300
:100050000C9485000C9485000C9485000C9485000C
:100060000C9480050C9485000000000024002700FB
:100070002A0000000000250028002B0004040404CE
:100080000404040402020202020203030303030342
:10009000010204081020408001020408102001021F
:1000A00004081020000000080002010000030407FB
:1000B0000000000000000000F80911241FBECFEF6F
:1000C000D8E0DEBFCDBF11E0A0E0B1E0E0E3FFE1AA
:1000D00002C005900D92AA36B107D9F723E0AAE62F
:1000E000B1E001C01D92A631B207E1F710E0CDE505
:1000F000D0E004C02197FE010E947C0CCC35D107D2
:10010000C9F70E9424070C94960F0C9400000895E0
:10011000CF92DF92EF92FF920F931F93CF93DF93D3
:100120006C017A018B01C0E0D0E0CE15DF0581F0D3
:10013000D8016D918D01D601ED91FC910190F08176
:10014000E02DC6010995892B11F02196EECF7E0195
:10015000C701DF91CF911F910F91FF90EF90DF903A
:10016000CF900895FC01538D448D252F30E0842FCE
:1001700090E0821B930B541710F0CF9608950197CF
:100180000895FC01918D828D981761F0828DDF01B9
:10019000A80FB11D5D968C91928D9F5F9F73928F7A
:1001A00090E008958FEF9FEF0895FC01918D828D6F
:1001B000981731F0828DE80FF11D858D90E008953C
:1001C0008FEF9FEF0895FC01918D228D892F90E094
:1001D000805C9F4F821B91098F73992708958BEE46
:1001E00091E00E94E30021E0892B09F420E0822FB6
:1001F0000895FC01848DDF01A80FB11DA35ABF4FE4
:100200002C91848D90E001968F739927848FA68915
:10021000B7892C93A089B1898C91837080648C9369
:10022000938D848D981306C00288F389E02D808118
:100230008F7D80830895EF92FF920F931F93CF934A
:10024000DF93EC0181E0888F9B8D8C8D981305C026
:10025000E889F989808185FD26C0F62E0B8D10E096
:100260000F5F1F4F0F731127E02E8C8DE8120CC00B
:100270000FB607FCFACFE889F989808185FFF5CFB1
:10028000CE010E94F900F1CF8B8DFE01E80FF11D28
:10029000E35AFF4FF0829FB7F8940B8FEA89FB89EE
:1002A000808180620AC09FB7F894EE89FF896083DD
:1002B000E889F98980818370806480839FBF81E0B1
:1002C00090E0DF91CF911F910F91FF90EF900895F3
:1002D000CF93DF93EC01888D8823C9F0EA89FB89ED
:1002E000808185FD05C0A889B9898C9186FD0FC0E4
:1002F0000FB607FCF5CF808185FFF2CFA889B989B9
:100300008C9185FFEDCFCE010E94F900E7CFDF9100
:10031000CF91089580E090E0892B29F00E94EF00B2
:1003200081110C9400000895089580E090E00895F4
:10033000CF93DF93C0918802D09189020E94C506B5
:100340006B837C838D839E83DF91CF9108950E9480
:10035000810F6115710579F0FB0101900020E9F72B
:100360003197AF01461B570BDC01ED91FC910280E8
:10037000F381E02D099480E090E00895EF92FF92E0
:100380000F931F93CF93DF93EC01198218821B8286
:100390001A821D821C8261157105B9F17B01FB0176
:1003A00001900020E9F731978F01061B170BB80168
:1003B0006F5F7F4F80E090E00E94BB0E009759F086
:1003C000998388831B830A832C813D81232B81F4AD
:1003D000FC0110820DC088819981009711F00E9464
:1003E000320E198218821D821C821B821A820DC055
:1003F0001D830C83B70188819981DF91CF911F9173
:100400000F91FF90EF900C948F0FDF91CF911F9180
:100410000F91FF90EF900895CF93FC01C48121E0EC
:100420002093AF01C0936A011092B3011092B20100
:100430008485682B8FED91E00E94CC049091B201ED
:10044000913208F045C08091B9018111FCCF82E062
:100450008093B90181E08093BB018FEF8093B80155
:100460001092DD019093DC01AFE8B1E0ECEBF1E03C
:1004700080E0981721F02D9121938F5FFACF109291
:10048000DE018091DE01CC0FC82BC093DE0180918C
:10049000BA01813061F41092BA018091DE0180933B
:1004A000BB008091BC0083FDF8CF85EC01C085EED8
:1004B0008093BC008091B9018230E1F38091B80152
:1004C0008F3F31F08091B801803211F08091B801F6
:1004D0001092B3011092B2011092AF01CF91089522
:1004E0000F931F93CF938C01C62F0E940C026C2F89
:1004F0006460C8010E940C026C2F6B7FC8010E94CF
:100500000C0283EC90E00197F1F7CF911F910F91CE
:100510000895EF92FF920F931F93CF93DF93EC0117
:1005200089810E94AE068C018B837C01FF242A8185
:1005300030E0E881F0E08FEF91E0BF010E94540CC1
:10054000620F731F6E157F0554F081E09EEFBF01AF
:100550000E94540C260F371FE216F3061CF40A8380
:1005600081E001C080E0DF91CF911F910F91FF905A
:10057000EF900895CF92DF92EF92FF92CF93DF93A7
:10058000EC0189810E94AE068B83C880D12C8FEF4D
:10059000C81AD80A0D2C000CEE08FF0889810E94A9
:1005A000AE06A70196012150310941095109DC012C
:1005B0000E94E40B2FEF33E040E050E00E94BA0BC2
:1005C00081E0820FDF91CF91FF90EF90DF90CF908D
:1005D00008951F920F920FB60F9211242F933F93FD
:1005E0008F939F93AF93BF938091870190918801E0
:1005F000A0918901B0918A013091860123E0230FF7
:100600002D3720F40196A11DB11D05C026E8230F4A
:100610000296A11DB11D20938601809387019093BE
:100620008801A0938901B0938A0180918B019091F8
:100630008C01A0918D01B0918E010196A11DB11D7B
:1006400080938B0190938C01A0938D01B0938E01C8
:10065000BF91AF919F918F913F912F910F900FBEBE
:100660000F901F9018951F920F920FB60F921124A2
:100670002F933F934F935F936F937F938F939F93AA
:10068000AF93BF93EF93FF93E0910201F0910301C9
:100690000995FF91EF91BF91AF919F918F917F91BC
:1006A0006F915F914F913F912F910F900FBE0F90DF
:1006B0001F9018951F920F920FB60F9211242F932F
:1006C0003F934F935F936F937F938F939F93AF93DA
:1006D000BF93EF93FF93E0910001F0910101099521
:1006E000FF91EF91BF91AF919F918F917F916F910A
:1006F0005F914F913F912F910F900FBE0F901F90E0
:1007000018958F929F92AF92BF92EF92FF920F93A4
:100710001F93CF93DF93CDB7DEB7A1970FB6F894B1
:10072000DEBF0FBECDBF7C01FA01CB0119A2223082
:1007300008F42AE08E010F5D1F4F822E912CA12C10
:10074000B12CBF01A50194010E94230CF901CA013B
:10075000015011096A3014F4605D01C0695CD80170
:100760006C93232B242B252B61F7B801C7010E9422
:10077000A901A1960FB6F894DEBF0FBECDBFDF91E1
:10078000CF911F910F91FF90EF90BF90AF909F90EE
:100790008F9008951F920F920FB60F9211242F93EE
:1007A0003F934F935F936F937F938F939F93AF93F9
:1007B000BF93EF93FF938BEE91E00E94F900FF91BE
:1007C000EF91BF91AF919F918F917F916F915F91C9
:1007D0004F913F912F910F900FBE0F901F90189542
:1007E0001F920F920FB60F9211242F938F939F9306
:1007F000EF93FF93E091FB01F091FC018081E09188
:100800000102F091020282FD12C0908180910402E7
:100810008F5F8F7320910502821751F0E0910402DF
:10082000F0E0E551FE4F958F8093040201C0808176
:10083000FF91EF919F918F912F910F900FBE0F908D
:100840001F9018950F931F93CF93DF938C01C62FA2
:10085000D42F607F642B0E94700280E1C89FB0019A
:1008600011246D2BC801DF91CF911F910F910C9432
:10087000700241E00E94220481E090E0089585ED3D
:100880008093BC008091BC0084FDFCCF1092B90124
:1008900008954091EC02262F30E0240F311D2132C3
:1008A0003105DCF42091B9012430C9F4FC0180E069
:1008B00090E0861758F43091EC022191DC01A453AA
:1008C000BD4FA30FB11D2C930196F3CF8091EC0285
:1008D000680F6093EC0280E0089581E0089582E063
:1008E0000895089508950895E091B1018091B001AF
:1008F000E81730F4F0E0E455FD4F808190E0089572
:100900008FEF9FEF08959091B1018091B0019817FA
:1009100050F4E92FF0E0E455FD4F208130E09F5F77
:100920009093B10102C02FEF3FEFC901089580916C
:10093000B00190E02091B101821B91090895CF92FE
:10094000DF92EF92FF920F931F93CF93DF937C017F
:10095000CB018A012091AF01222389F0EB016B01C9
:10096000C40ED51ECC15DD0569F06991D701ED9156
:10097000FC910190F081E02DC7010995F3CF642F20
:100980000E944904C801DF91CF911F910F91FF9000
:10099000EF90DF90CF900895CF93DF931F92CDB764
:1009A000DEB769832091AF012223D1F02091B201FB
:1009B000203240F021E030E0FC013383228380E0EC
:1009C00090E015C08091B301E82FF0E0E157FE4FB1
:1009D000998190838F5F8093B3018093B20105C0AA
:1009E00061E0CE0101960E94490481E090E00F9001
:1009F000DF91CF910895682F606840E083E992E02D
:100A00000C94220440E061E083E992E00E94220419
:100A10008BE39FE10197F1F780919C02882319F005
:100A200080E00C94FB0408950F931F93CF938C01E7
:100A3000C62F0E94020580E00E94FB04F801448159
:100A400055816081718183E992E00E948800CA30FB
:100A500010F48FE001C08EE00E94FB044C2F50E0A8
:100A600060E070E02AE083E992E0CF911F910F915E
:100A70000C94810390E0FC01EC55FF4F2491FC01A4
:100A8000E057FF4F3491FC01E458FF4FE491EE230F
:100A9000B1F1222339F1233091F038F42130A9F05B
:100AA000223001F584B58F7D12C0273091F02830B7
:100AB000A1F02430B9F4809180008F7D03C0809133
:100AC00080008F77809380000DC084B58F7784BDC0
:100AD00009C08091B0008F7703C08091B0008F7DF6
:100AE0008093B000F0E0EE0FFF1FEE58FF4FA5918E
:100AF000B4918FB7F894EC91E32BEC938FBF0895EA
:100B00001F920F920FB60F9211242F933F934F9382
:100B10005F936F937F938F939F93AF93BF93EF9365
:100B2000FF938091B900887F803609F49CC068F5F6
:100B3000883209F45BC090F4803109F454C038F471
:100B4000882309F4F6C0883009F44DC0F6C0883116
:100B500009F44CC0803209F45DC0EFC0803409F460
:100B600068C048F4803309F455C0883309F0E5C003
:100B70008093B801D8C0803509F44FC0883509F496
:100B80005DC0883409F0D9C0D6C0883909F4C7C01F
:100B9000A8F4883709F467C038F4883609F463C0CC
:100BA000803709F460C0C9C0883809F4B8C08039FA
:100BB00009F45FC0803809F0C0C05BC0803B09F415
:100BC00086C038F4803A09F466C0883A09F47FC0D8
:100BD000B4C0803C09F4A7C0883C09F4A4C0883B99
:100BE00009F48AC0AAC08091DE0110C09091DD0195
:100BF0008091DC01981770F5E091DD0181E08E0FA6
:100C00008093DD01F0E0E454FE4F80818093BB00CF
:100C100085EC86C08093B8018EC0E091DD0181E053
:100C20008E0F8093DD018091BB00F0E0E454FE4F15
:100C300080839091DD018091DC016EC0E091DD0147
:100C400081E08E0F8093DD018091BB00F0E0E454E1
:100C5000FE4F80838091BB0181116DC081E0809344
:100C6000BA0184EA61C083E08093B90110920E0357
:100C7000CFCF80910E03803208F051C0E0910E0377
:100C800081E08E0F80930E038091BB00F0E0E25173
:100C9000FD4F8083BDCF85EC8093BC001092B901DD
:100CA00080910E03803230F4E0910E03F0E0E251C7
:100CB000FD4F108260910E0370E0E091B601F0915B
:100CC000B7018EEE92E0099510920E0336C084E0D3
:100CD0008093B9011092ED021092EC02E091B40100
:100CE000F091B50109958091EC02811105C081E078
:100CF0008093EC021092CC02E091ED0281E08E0F25
:100D00008093ED02F0E0E453FD4F80818093BB00BF
:100D10009091ED028091EC02981708F479CF85E864
:100D20008093BC000AC085EC8093BC001092B9018E
:100D300004C01092B8010E943F04FF91EF91BF914F
:100D4000AF919F918F917F916F915F914F913F9163
:100D50002F910F900FBE0F901F9018958E3008F0B6
:100D60008E508770806480937C0080917A008064CC
:100D700080937A0080917A0086FDFCCF8091780084
:100D80002091790090E0922B08953FB7F8948091DC
:100D90008B0190918C01A0918D01B0918E0126B5AF
:100DA000A89B05C02F3F19F00196A11DB11D3FBFA3
:100DB000BA2FA92F982F8827820F911DA11DB11D31
:100DC000BC01CD0142E0660F771F881F991F4A952D
:100DD000D1F708958F929F92AF92BF92CF92DF92F8
:100DE000EF92FF926B017C010E94C5064B015C01F2
:100DF000C114D104E104F104F1F00E94C506DC0144
:100E0000CB0188199909AA09BB09883E9340A1051D
:100E1000B10570F321E0C21AD108E108F10888EEAB
:100E2000880E83E0981EA11CB11CC114D104E104FA
:100E3000F10419F7DDCFFF90EF90DF90CF90BF90D6
:100E4000AF909F908F900895CF93DF9300D000D004
:100E500000D0CDB7DEB7789484B5826084BD84B508
:100E6000816084BD85B5826085BD85B5816085BDA5
:100E700080916E00816080936E001092810080915D
:100E800081008260809381008091810081608093E5
:100E90008100809180008160809380008091B1000A
:100EA00084608093B1008091B00081608093B00035
:100EB00080917A00846080937A0080917A008260C9
:100EC00080937A0080917A00816080937A0080918B
:100ED0007A00806880937A001092C10080917E0130
:100EE000811109C080E090E00E94B20B80937D01E7
:100EF00081E080937E0180917501811109C081E0BC
:100F000090E00E94B20B8093740181E080937501A0
:100F100080916C01811109C082E090E00E94B20BC7
:100F200080936B0181E080936C011092B10110926B
:100F3000B0011092B3011092B2011092B90181E098
:100F40008093BB011092BA0182E10E943A0583E1CD
:100F50000E943A058091B9008E7F8093B9008091FC
:100F6000B9008D7F8093B90088E48093B80085E450
:100F70008093BC0081E794E09093B5018093B40125
:100F800082E794E09093B7018093B60110929802A3
:100F900080919E02823018F098E09093980280939E
:100FA0009B0262E370E080E090E00E94EA066091BC
:100FB0009F0283E992E00E940C0268EE73E080E0F9
:100FC00090E00E94EA0660E383E992E00E947002EA
:100FD0000BE416E4C8010197F1F760E383E992E0BE
:100FE0000E947002C8010197F1F760E383E992E083
:100FF0000E94700283E592E00197F1F760E283E9D5
:1010000092E00E94700260919802606240E083E981
:1010100092E00E94220484E08093990240E06CE018
:1010200083E992E00E9422040E94020512E01093DC
:101030009A0240E066E083E992E00E94220440E0E8
:1010400062E083E992E00E9422048BE39FE1019732
:10105000F1F788E080939F0260E083E992E00E94CC
:101060000C02E091FB01F091FC011083E091F7018B
:10107000F091F8011082E091F901F091FA018FEC02
:10108000808310920302E091FF01F091000286E05C
:101090008083E091FD01F091FE0180818061808379
:1010A000E091FD01F091FE01808188608083E091F4
:1010B000FD01F091FE01808180688083E091FD0157
:1010C000F091FE0180818F7D808388EA92E00E940A
:1010D00089028823B1F088EA92E00E94BA02182FB0
:1010E00080937D016AE371E0CE0101960E94BE010A
:1010F000612FCE0101960E94140589819A810E9478
:10110000320E84EA92E00E9489028823B1F084EAD8
:1011100092E00E94BA02182F8093740163E471E098
:10112000CE0101960E94BE01612FCE0101960E9460
:10113000140589819A810E94320E80EA92E00E9411
:1011400089028823B1F080EA92E00E94BA02182F47
:1011500080936B016CE471E0CE0101960E94BE01A8
:10116000612FCE0101960E94140589819A810E9407
:10117000320E0E94C50600918D0210918E022091C0
:101180008F0230919002601B710B820B930B0E94B7
:10119000930A20E034E244EF5BE40E94EF0C20E08D
:1011A00030E040E752E40E94F40A9B01AC0160E0A9
:1011B00070E080E89FE30E94EF0C20E030E040E226
:1011C00051E40E94900D18160CF07FCF0E94C506C6
:1011D00000918D0210918E0220918F023091900229
:1011E000601B710B820B930B0E94930A20E034E288
:1011F00044EF5BE40E94EF0C20E030E040E752E473
:101200000E94F40A9B01AC0160E070E080E89FE37B
:101210000E94EF0C6B017C014B015C019B01AC0156
:101220000E94950D882319F06AE571E01AC0260125
:101230003701E89477F82FEF3FEF4FE75FE7C301FF
:10124000B2010E94950D811111C02FEF3FEF4FE7C2
:101250005FE7C301B2010E948E0A18163CF46EE5E6
:1012600071E08BEE91E00E94A9017FC02FEF3FEF6C
:101270004FE75FE4C701B6010E94900D18161CF4F9
:1012800062E671E0EECF2FEF3FEF4FE75FECC70173
:10129000B6010E948E0A87FDF3CF20E030E0A9015D
:1012A000C701B6010E948E0A87FF0BC06DE28BEE6C
:1012B00091E00E941B0146015701B7FAB094B7F8BC
:1012C000B0942AE037ED43EA5BE3C501B4010E9424
:1012D000830C4B015C010E94610D6B017C010E943B
:1012E000930A9B01AC01C501B4010E94820C4B0121
:1012F0005C012AE0B701A6018BEE91E00E94810318
:101300006EE28BEE91E00E941B0120E030E040E2B3
:1013100051E4C501B4010E94F40A4B015C010E9432
:10132000610D6B01E12CF12C2AE0B701A6018BEED7
:1013300091E00E948103C701B6010E94930A9B01BC
:10134000AC01C501B4010E94820C20E030E040E213
:1013500051E40E94F40A0E94610DAB0160E070E06C
:101360002AE08BEE91E00E94810366E671E08BEE4D
:1013700091E00E94A901A9CECF93DF9390E0FC01F8
:10138000E057FF4F2491FC01E458FF4F84918823DC
:1013900061F190E0880F991FFC01E859FF4FC5915A
:1013A000D491FC01EE58FF4FA591B491611109C091
:1013B0009FB7F8948881209582238883EC912E230F
:1013C0000BC0623061F49FB7F8948881322F30955A
:1013D00083238883EC912E2B2C939FBF06C08FB75D
:1013E000F894E8812E2B28838FBFDF91CF91089549
:1013F000CF93EFEDF1E01382128288EE93E0A0E04C
:10140000B0E084839583A683B7832EE031E03183F7
:101410002083EBEEF1E01382128284839583A6830E
:10142000B78380E291E09183808385EC90E095879B
:10143000848784EC90E09787868780EC90E0918B9E
:10144000808B81EC90E0938B828B82EC90E0958B8B
:10145000848B86EC90E0978B868B118E128E138E88
:10146000148E60E08EE00E94BC09E8EAF2E0CAE077
:10147000C0838EE0818360E08FE00E94BC09E4EAD3
:10148000F2E0C0838FE0818360E080E10E94BC09CC
:10149000E0EAF2E0C08380E18183E3E9F2E01382D5
:1014A000128222E331E031832083118697E2948314
:1014B0008287C2E0C387148661E084E00E94BC0991
:1014C00062E082E00E94BC09EAE8F2E084E0808306
:1014D000C183F0938902E093880288E991E09093B8
:1014E000010180930001E9E6F0E080818360808360
:1014F000E89AEFE0F3E081E1808385E0818386E094
:10150000828360E081E10E94BC0960E085E00E9486
:10151000BC0960E086E0CF910C94BC090E94D00A1F
:1015200008F481E00895E89409C097FB3EF4909593
:101530008095709561957F4F8F4F9F4F9923A9F0AC
:10154000F92F96E9BB279395F6958795779567953B
:10155000B795F111F8CFFAF4BB0F11F460FF1BC07F
:101560006F5F7F4F8F4F9F4F16C0882311F096E912
:1015700011C0772321F09EE8872F762F05C06623C0
:1015800071F096E8862F70E060E02AF09A95660F79
:10159000771F881FDAF7880F9695879597F9089532
:1015A000990F0008550FAA0BE0E8FEEF1616170674
:1015B000E807F907C0F012161306E407F50798F0DC
:1015C000621B730B840B950B39F40A2661F0232BF5
:1015D000242B252B21F408950A2609F4A140A69571
:1015E0008FEF811D811D08950E94070B0C94780BCD
:1015F0000E946A0B38F00E94710B20F0952311F0C5
:101600000C94610B0C94670B11240C94AC0B0E948E
:10161000890B70F3959FC1F3950F50E0551F629FA2
:10162000F001729FBB27F00DB11D639FAA27F00D3B
:10163000B11DAA1F649F6627B00DA11D661F829F62
:101640002227B00DA11D621F739FB00DA11D621F47
:10165000839FA00D611D221F749F3327A00D611D64
:10166000231F849F600D211D822F762F6A2F112446
:101670009F5750409AF0F1F088234AF0EE0FFF1F79
:10168000BB1F661F771F881F91505040A9F79E3FD0
:10169000510580F00C94610B0C94AC0B5F3FE4F3AC
:1016A000983ED4F3869577956795B795F795E79526
:1016B0009F5FC1F7FE2B880F911D9695879597F92F
:1016C000089597F99F6780E870E060E008959FEFC4
:1016D00080EC089500240A941616170618060906C9
:1016E000089500240A941216130614060506089598
:1016F000092E0394000C11F4882352F0BB0F40F420
:10170000BF2B11F460FF04C06F5F7F4F8F4F9F4F5F
:10171000089557FD9058440F551F59F05F3F71F0E1
:101720004795880F97FB991F61F09F3F79F0879548
:101730000895121613061406551FF2CF4695F1DFD1
:1017400008C0161617061806991FF1CF8695710561
:10175000610508940895E894BB2766277727CB0195
:1017600097F90895F999FECF92BD81BDF89A99270E
:1017700080B50895052E97FB1EF400940E94D10BAE
:1017800057FD07D00E94230C07FC03D04EF40C94A5
:10179000D10B50954095309521953F4F4F4F5F4F5E
:1017A000089590958095709561957F4F8F4F9F4FCD
:1017B00008950E94450CA59F900DB49F900DA49F85
:1017C000800D911D11240895B7FF0C94D90B0E9430
:1017D000D90B821B930B08952F923F924F925F92E9
:1017E0006F927F928F929F92AF92BF92CF92DF9231
:1017F000EF92FF920F931F93CF93DF93CDB7DEB796
:10180000CA1BDB0B0FB6F894DEBF0FBECDBF099429
:101810002A88398848885F846E847D848C849B8480
:10182000AA84B984C884DF80EE80FD800C811B818E
:10183000AA81B981CE0FD11D0FB6F894DEBF0FBEBD
:10184000CDBFED010895A1E21A2EAA1BBB1BFD011D
:101850000DC0AA1FBB1FEE1FFF1FA217B307E4078F
:10186000F50720F0A21BB30BE40BF50B661F771FE7
:10187000881F991F1A9469F76095709580959095C7
:101880009B01AC01BD01CF010895A29FB001B39FA0
:10189000C001A39F700D811D1124911DB29F700D79
:1018A000811D1124911D089597FB072E16F40094B5
:1018B00007D077FD09D00E94680C07FC05D03EF4E4
:1018C000909581959F4F0895709561957F4F0895EC
:1018D000AA1BBB1B51E107C0AA1FBB1FA617B70756
:1018E00010F0A61BB70B881F991F5A95A9F7809572
:1018F0009095BC01CD010895EE0FFF1F0590F49166
:10190000E02D09945058BB27AA270E949A0C0C94EA
:10191000780B0E946A0B38F00E94710B20F039F4AA
:101920009F3F19F426F40C94670B0EF4E095E7FB47
:101930000C94610BE92F0E94890B58F3BA176207C8
:1019400073078407950720F079F4A6F50C94AB0B88
:101950000EF4E0950B2EBA2FA02D0B01B9019001CA
:101960000C01CA01A0011124FF27591B99F0593F0E
:1019700050F4503E68F11A16F040A22F232F342F56
:101980004427585FF3CF469537952795A795F040A4
:101990005395C9F77EF41F16BA0B620B730B840BB9
:1019A000BAF09150A1F0FF0FBB1F661F771F881F71
:1019B000C2F70EC0BA0F621F731F841F48F48795C9
:1019C00077956795B795F7959E3F08F0B0CF9395BB
:1019D000880F08F09927EE0F9795879508950E9434
:1019E000030D0C94780B0E94710B58F00E946A0B47
:1019F00040F029F45F3F29F00C94610B51110C94D5
:101A0000AC0B0C94670B0E94890B68F39923B1F31C
:101A1000552391F3951B550BBB27AA276217730714
:101A2000840738F09F5F5F4F220F331F441FAA1FA8
:101A3000A9F335D00E2E3AF0E0E832D09150504064
:101A4000E695001CCAF72BD0FE2F29D0660F771F12
:101A5000881FBB1F261737074807AB07B0E809F0F8
:101A6000BB0B802DBF01FF2793585F4F3AF09E3F7D
:101A7000510578F00C94610B0C94AC0B5F3FE4F3D0
:101A8000983ED4F3869577956795B795F7959F5FC0
:101A9000C9F7880F911D9695879597F90895E1E00C
:101AA000660F771F881FBB1F621773078407BA076B
:101AB00020F0621B730B840BBA0BEE1F88F7E095C6
:101AC00008950E94910B88F09F5798F0B92F99279D
:101AD000B751B0F0E1F0660F771F881F991F1AF019
:101AE000BA95C9F714C0B13091F00E94AB0BB1E0C8
:101AF00008950C94AB0B672F782F8827B85F39F0C7
:101B0000B93FCCF3869577956795B395D9F73EF4B1
:101B100090958095709561957F4F8F4F9F4F089559
:101B20000E94D00A08F48FEF08950E94D00A880B13
:101B3000990B08950F931F93CF93DF9382309105F4
:101B400010F482E090E0E0911403F091150320E09E
:101B500030E0A0E0B0E0309719F14081518102817E
:101B6000138148175907C8F08417950769F410972F
:101B700031F012960C93129713961C9327C0009382
:101B800014031093150322C02115310519F04217D3
:101B9000530718F49A01BD01EF01DF01F801DBCF13
:101BA00021153105F9F0281B390B2430310580F45B
:101BB0008A819B816115710521F0FB0193838283EA
:101BC00004C09093150380931403FE01329644C021
:101BD000FE01E20FF31F8193919322503109398363
:101BE00028833AC02091120330911303232B41F430
:101BF00020910601309107013093130320931203C3
:101C000020910401309105012115310541F42DB7D2
:101C10003EB74091080150910901241B350BE0911A
:101C20001203F0911303E217F307A0F42E1B3F0BEE
:101C30002817390778F0AC014E5F5F4F241735073E
:101C400048F04E0F5F1F509313034093120381938C
:101C5000919302C0E0E0F0E0CF01DF91CF911F91BE
:101C60000F910895CF93DF93009709F481C0FC0191
:101C7000329713821282A0911403B091150310972A
:101C800081F420813181820F931F209112033091C2
:101C900013032817390751F5F0931303E093120348
:101CA00067C0ED0120E030E0CE17DF0740F44A8145
:101CB0005B819E0141155105F1F0EA01F5CFD38317
:101CC000C28340815181840F951FC817D90759F4E9
:101CD00088819981840F951F0296918380838A81E0
:101CE0009B81938382832115310529F4F093150399
:101CF000E09314033DC0E901FB83EA8349915991C4
:101D0000C40FD51FEC17FD0761F480819181840F0A
:101D1000951F0296E90199838883828193819B8331
:101D20008A83E0E0F0E012968D919C9113970097E2
:101D300019F0FD01DC01F7CF8D919C9111979D0168
:101D40002E5F3F4F820F931F209112033091130398
:101D50002817390769F4309729F410921503109267
:101D6000140302C013821282B0931303A0931203D0
:101D7000DF91CF910895A0E0B0E0E1ECFEE00C949B
:101D8000F00BEC01009721F4CB010E949A0DB4C036
:101D9000FC01E60FF71F9C0122503109E217F307FF
:101DA00008F4A8C0D9010D911C91119706171707C7
:101DB000B0F00530110508F49BC0C80104978617E0
:101DC000970708F495C002501109061B170B0193E1
:101DD00011936D937C93CF010E94320E89C05B01F9
:101DE000A01AB10A4C01800E911EA0911403B0916B
:101DF0001503612C712CE12CF12C109709F446C0CD
:101E00008D919C911197A815B905B1F56C0142E02F
:101E1000C40ED11CCA14DB0478F14C018A189B084B
:101E2000640142E0C40ED11C1296BC901297139626
:101E3000AC91B5E0CB16D10440F0B282A38391827D
:101E40008082D9016D937C9309C00E5F1F4F800F74
:101E5000911FF90191838083EB2DFA2FE114F10496
:101E600031F0D7011396FC93EE93129741C0F09393
:101E70001503E09314033CC06816790608F43C018E
:101E80007D0112960D90BC91A02DB7CF80911203C9
:101E90009091130388169906E1F466167706C8F444
:101EA0008091040190910501009741F48DB79EB790
:101EB0004091080150910901841B950BE817F9071F
:101EC000C8F4F0931303E0931203F9017183608364
:101ED0000FC0CB010E949A0D7C01009759F0A80118
:101EE000BE010E94860FCE010E94320EC70104C0BF
:101EF000CE0102C080E090E0CDB7DEB7EEE00C94FA
:101F00000C0C81E090E0F8940C94960FFB01DC013E
:101F100002C001900D9241505040D8F70895FB0146
:101F2000DC0101900D920020E1F70895F894FFCFB5
:101F30008700870000001603200000000000CC048A
:101F40009F04950173049704830474040000000047
:101F50001B018800B2006801E300C100D500000049
:101F600000003904880095019401566F6C756D6509
:101F70003A20004272656174683A200050726F70B6
:101F80006F7274696F6E733A20006E616E00696ED5
:0A1F900066006F7666000D0A00007F
:00000001FF
