:100000000C945D000C947B050C9454050C948500B5
:100010000C9485000C9485000C9485000C9485004C
:100020000C9485000C9485000C9485000C9485003C
:100030000C9485000C9485000C9485000C9485002C
:100040000C940A050C9485000C9411060C94EB0595
:100050000C9485000C9485000C9485000C9485000C
:100060000C945B070C94850000000000240027001E
:100070002A0000000000250028002B0004040404CE
:100080000404040402020202020203030303030342
:10009000010204081020408001020408102001021F
:1000A00004081020000000080002010000030407FB
:1000B00000000000000000002B0C11241FBECFEF39
:1000C000D8E0DEBFCDBF11E0A0E0B1E0E8E9F6E2A4
:1000D00002C005900D92AA36B107D9F723E0AAE62F
:1000E000B1E001C01D92A035B207E1F710E0CDE507
:1000F000D0E004C02197FE010E942910CC35D10721
:10010000C9F70E9488090C944A130C9400000895C2
:10011000CF92DF92EF92FF920F931F93CF93DF93D3
:100120006C017A018B01C0E0D0E0CE15DF0581F0D3
:10013000D8016D918D01D601ED91FC910190F08176
:10014000E02DC6010995892B11F02196EECF7E0195
:10015000C701DF91CF911F910F91FF90EF90DF903A
:10016000CF900895FC01538D448D252F30E0842FCE
:1001700090E0821B930B541710F0CF9608950197CF
:100180000895FC01918D828D981761F0828DDF01B9
:10019000A80FB11D5D968C91928D9F5F9F73928F7A
:1001A00090E008958FEF9FEF0895FC01918D828D6F
:1001B000981731F0828DE80FF11D858D90E008953C
:1001C0008FEF9FEF0895FC01918D228D892F90E094
:1001D000805C9F4F821B91098F739927089580ED52
:1001E00091E00E94E30021E0892B09F420E0822FB6
:1001F0000895FC01848DDF01A80FB11DA35ABF4FE4
:100200002C91848D90E001968F739927848FA68915
:10021000B7892C93A089B1898C91837080648C9369
:10022000938D848D981306C00288F389E02D808118
:100230008F7D80830895EF92FF920F931F93CF934A
:10024000DF93EC0181E0888F9B8D8C8D981305C026
:10025000E889F989808185FD26C0F62E0B8D10E096
:100260000F5F1F4F0F731127E02E8C8DE8120CC00B
:100270000FB607FCFACFE889F989808185FFF5CFB1
:10028000CE010E94F900F1CF8B8DFE01E80FF11D28
:10029000E35AFF4FF0829FB7F8940B8FEA89FB89EE
:1002A000808180620AC09FB7F894EE89FF896083DD
:1002B000E889F98980818370806480839FBF81E0B1
:1002C00090E0DF91CF911F910F91FF90EF900895F3
:1002D000CF93DF93EC01888D8823C9F0EA89FB89ED
:1002E000808185FD05C0A889B9898C9186FD0FC0E4
:1002F0000FB607FCF5CF808185FFF2CFA889B989B9
:100300008C9185FFEDCFCE010E94F900E7CFDF9100
:10031000CF91089580E090E0892B29F00E94EF00B2
:1003200081110C9400000895089580E090E00895F4
:100330002F923F924F925F926F927F928F929F92F5
:10034000AF92BF92CF92DF92EF92FF920F931F93E3
:10035000CF93DF93CDB7DEB72F970FB6F894DEBFFC
:100360000FBECDBF20917102309172023F872E8760
:10037000F901ED5AFF4F80819181A281B3810196ED
:10038000A11DB11D80839183A283B3830E9429099B
:100390000E851F85055B1F4FEE85FF85FF96C0808C
:1003A000D180E280F3806C197D098E099F090E943B
:1003B000400E20E034E244E759E40E949C109B0187
:1003C000AC0160E070E080E89FE30E949C1020E0B8
:1003D00030E040E752E40E94A10ED8016D937D9376
:1003E0008D939C931397EE85FF8582AD882309F446
:1003F00045C18FB7F89420916D0230916E02409103
:100400006F02509170022A873B874C875D878FBFB0
:1004100082A193A1A4A1B5A14A855B856C857D8548
:10042000481B590B6A0B7B0B86A597A5A0A9B1A900
:10043000481759076A077B0708F420C1AE85BF85B6
:100440005C96ED91FC915D972081318142815381D1
:1004500029833A834B835C839096ED91FC9191972D
:1004600060817181828193810E942F104B015C0118
:10047000AE85BF859A962D913D914D915C919D974A
:1004800069817A818B819C810E942F106B017C0194
:10049000EE85FF852089318942895389C501B401E0
:1004A0000E94A10EAE85BF8596962D913D914D91EE
:1004B0005C9199970E9430102B013C01EE85FF85DD
:1004C00066A377A380A791A7F3ADFD83F11118C0B0
:1004D000AE85BF851C962D913D914D915C911F97E6
:1004E000C701B6010E94A10E9B01AC01C301B2017C
:1004F0000E942F10EE85FF8566A377A380A791A7A2
:10050000AE85BF8596964D905D906D907C90999745
:10051000D6961C91D697D7960C91D797D8963C90A3
:10052000D897D9962C90212F302F432D522DC301CF
:10053000B2010E94441118165CF4812F902FA32D54
:10054000B22DEE85FF8586A397A3A0A7B1A71EC0F5
:10055000AE85BF85D2962D913D914D915C91D597F9
:100560002E833F8348875987C301B2010E943B0E07
:1005700087FF0CC02E813F8148855985AE85BF8598
:1005800096962D933D934D935C939997BD81BB2394
:1005900069F0EE85FF852485358546855785C5013B
:1005A000B4010E94A10E4B015C0103C0812C912C6F
:1005B0005401AE85BF8554962D913D914D915C912E
:1005C0005797C701B6010E94A10E9B01AC01EE85B1
:1005D000FF8566A177A180A591A50E942F10A50196
:1005E00094010E9430106B017C019B01AC01612FD2
:1005F000702F832D922D0E943B0E87FD1BC0AE8570
:10060000BF85D2961C91D297D3960C91D397D4964E
:100610003C90D497D5962C90212F302F432D522DDE
:10062000B601C7010E943B0E87FD04C01C2D0D2D95
:100630003E2C2F2CAE85BF855E96ED91FC915F9789
:10064000812F902FA32DB22D80839183A283B3831A
:1006500029813A814B815C81AE85BF859A962D9325
:100660003D934D935C939D972A853B854C855D8595
:1006700092962D933D934D935C939597EE85FF85D0
:10068000E15BFF4F60817181828193810E940E1135
:100690006B017C018B01EE85FF85B4AC61E08B2D95
:1006A0000E94D608C114D10409F447C00F3F1105B8
:1006B00009F445C0EB2DF0E0EC55FF4FE491E33039
:1006C000F9F048F4E130B9F0E230A1F584B5806288
:1006D00084BDC8BC38C0E730E9F0E83019F1E43037
:1006E00049F580918000806280938000D0928B00D9
:1006F000C0928A0028C084B5806884BDC7BC23C06E
:1007000080918000806880938000D0928900C092A0
:10071000880019C08091B00080688093B000C092BA
:10072000B30011C08091B00080628093B000C0928D
:10073000B40009C00038110514F460E001C061E0A4
:100740008B2D0E9489080E9429092E853F85215CF6
:100750003F4FD9016D937D938D939C9313972F9663
:100760000FB6F894DEBF0FBECDBFDF91CF911F91C2
:100770000F91FF90EF90DF90CF90BF90AF909F9040
:100780008F907F906F905F904F903F902F90089543
:100790000E9435136115710579F0FB01019000206D
:1007A000E9F73197AF01461B570BDC01ED91FC9146
:1007B0000280F381E02D099480E090E00895EF92AB
:1007C000FF920F931F93CF93DF93EC01198218824E
:1007D0001B821A821D821C8261157105B9F17B0191
:1007E000FB0101900020E9F731978F01061B170BE1
:1007F000B8016F5F7F4F80E090E00E946F1200971A
:1008000059F0998388831B830A832C813D81232B94
:1008100081F4FC0110820DC088819981009711F04C
:100820000E94E611198218821D821C821B821A8284
:100830000DC01D830C83B70188819981DF91CF9111
:100840001F910F91FF90EF900C944313DF91CF9184
:100850001F910F91FF90EF900895CF93FC01C481F9
:1008600021E020939401C0936A01109298011092A4
:1008700097018485682B84EC91E00E94ED069091AD
:100880009701913208F045C080919E018111FCCF03
:1008900082E080939E0181E08093A0018FEF80939E
:1008A0009D011092C2019093C101A4E7B1E0E1EA79
:1008B000F1E080E0981721F02D9121938F5FFACF1E
:1008C0001092C3018091C301CC0FC82BC093C30108
:1008D00080919F01813061F410929F018091C3014A
:1008E0008093BB008091BC0083FDF8CF85EC01C0F4
:1008F00085EE8093BC0080919E018230E1F380916F
:100900009D018F3F31F080919D01803211F08091E7
:100910009D01109298011092970110929401CF912D
:1009200008950F931F93CF938C01C62F0E942D041F
:100930006C2F6460C8010E942D046C2F6B7FC8016E
:100940000E942D0483EC90E00197F1F7CF911F9165
:100950000F910895EF92FF920F931F93CF93DF9320
:10096000EC0189810E9412098C018B837C01FF2498
:100970002A8130E0E881F0E08FEF91E0BF010E9432
:100980000110620F731F6E157F0554F081E09EEF1A
:10099000BF010E940110260F371FE216F3061CF458
:1009A0000A8381E001C080E0DF91CF911F910F9118
:1009B000FF90EF900895CF92DF92EF92FF92CF9346
:1009C000DF93EC0189810E9412098B83C880D12CAE
:1009D0008FEFC81AD80A0D2C000CEE08FF08898189
:1009E0000E941209A70196012150310941095109BC
:1009F000DC010E94910F2FEF33E040E050E00E94B5
:100A0000670F81E0820FDF91CF91FF90EF90DF9031
:100A1000CF9008951F920F920FB60F9211242F932B
:100A20003F938F939F93AF93BF9380916D0290916B
:100A30006E02A0916F02B091700230916F0123E0BD
:100A4000230F2D3720F40196A11DB11D05C026E806
:100A5000230F0296A11DB11D20936F0180936D029B
:100A600090936E02A0936F02B09370028091700118
:100A700090917101A0917201B09173010196A11D35
:100A8000B11D8093700190937101A0937201B09396
:100A90007301BF91AF919F918F913F912F910F90D3
:100AA0000FBE0F901F9018951F920F920FB60F92C6
:100AB00011242F933F934F935F936F937F938F9363
:100AC0009F93AF93BF93EF93FF93E0910201F09157
:100AD00003010995FF91EF91BF91AF919F918F9184
:100AE0007F916F915F914F913F912F910F900FBE2A
:100AF0000F901F9018951F920F920FB60F9211240E
:100B00002F933F934F935F936F937F938F939F9315
:100B1000AF93BF93EF93FF93E0910001F091010138
:100B20000995FF91EF91BF91AF919F918F917F9127
:100B30006F915F914F913F912F910F900FBE0F904A
:100B40001F9018958F929F92AF92BF92EF92FF9253
:100B50000F931F93CF93DF93CDB7DEB7A1970FB657
:100B6000F894DEBF0FBECDBF7C01FA01CB0119A204
:100B7000223008F42AE08E010F5D1F4F822E912C47
:100B8000A12CB12CBF01A50194010E94D00FF90145
:100B9000CA01015011096A3014F4605D01C0695C3A
:100BA000D8016C93232B242B252B61F7B801C701A7
:100BB0000E94CA03A1960FB6F894DEBF0FBECDBF48
:100BC000DF91CF911F910F91FF90EF90BF90AF9069
:100BD0009F908F9008951F920F920FB60F9211243D
:100BE0002F933F934F935F936F937F938F939F9335
:100BF000AF93BF93EF93FF9380ED91E00E94F900D4
:100C0000FF91EF91BF91AF919F918F917F916F91E4
:100C10005F914F913F912F910F900FBE0F901F90BA
:100C200018951F920F920FB60F9211242F938F9346
:100C30009F93EF93FF93E091E001F091E1018081B8
:100C4000E091E601F091E70182FD12C09081809170
:100C5000E9018F5F8F732091EA01821751F0E091D3
:100C6000E901F0E0E053FE4F958F8093E90101C068
:100C70008081FF91EF919F918F912F910F900FBEE7
:100C80000F901F9018950F931F93CF93DF938C01B4
:100C9000C62FD42F607F642B0E94910480E1C89FEF
:100CA000B00111246D2BC801DF91CF911F910F91DD
:100CB0000C94910441E00E94430681E090E0089585
:100CC00085ED8093BC008091BC0084FDFCCF109228
:100CD0009E01089540912903262F30E0240F311DF5
:100CE00021323105DCF420919E012430C9F4FC014D
:100CF00080E090E0861758F4309129032191DC01BF
:100D0000A75FBC4FA30FB11D2C930196F3CF809129
:100D10002903680F6093290380E0089581E0089516
:100D200082E00895089508950895E09196018091D4
:100D30009501E81730F4F0E0E751FD4F808190E035
:100D400008958FEF9FEF08959091960180919501FE
:100D5000981750F4E92FF0E0E751FD4F208130E083
:100D60009F5F9093960102C02FEF3FEFC901089556
:100D70008091950190E020919601821B9109089540
:100D8000CF92DF92EF92FF920F931F93CF93DF9357
:100D90007C01CB018A0120919401222389F0EB018F
:100DA0006B01C40ED51ECC15DD0569F06991D70124
:100DB000ED91FC910190F081E02DC7010995F3CFF1
:100DC000642F0E946A06C801DF91CF911F910F9195
:100DD000FF90EF90DF90CF900895CF93DF931F9215
:100DE000CDB7DEB76983209194012223D1F0209101
:100DF0009701203240F021E030E0FC013383228370
:100E000080E090E015C080919801E82FF0E0EC5868
:100E1000FE4F998190838F5F809398018093970113
:100E200005C061E0CE0101960E946A0681E090E073
:100E30000F90DF91CF910895682F606840E08DECAE
:100E400092E00C94430640E061E08DEC92E00E9459
:100E500043068BE39FE10197F1F78091D602882347
:100E600019F080E00C941C0708950F931F93CF9303
:100E70008C01C62F0E94230780E00E941C07F80106
:100E800044815581608171818DEC92E00E948800DF
:100E9000CA3010F48FE001C08EE00E941C074C2F76
:100EA00050E060E070E02AE08DEC92E0CF911F917D
:100EB0000F910C94A2051F920F920FB60F9211245E
:100EC0002F933F934F935F936F937F938F939F9352
:100ED000AF93BF93EF93FF938091B900887F8036E3
:100EE00009F49CC068F5883209F45BC090F4803145
:100EF00009F454C038F4882309F4F6C0883009F4A2
:100F00004DC0F6C0883109F44CC0803209F45DC090
:100F1000EFC0803409F468C048F4803309F455C048
:100F2000883309F0E5C080939D01D8C0803509F46D
:100F30004FC0883509F45DC0883409F0D9C0D6C0E7
:100F4000883909F4C7C0A8F4883709F467C038F4B1
:100F5000883609F463C0803709F460C0C9C0883896
:100F600009F4B8C0803909F45FC0803809F0C0C006
:100F70005BC0803B09F486C038F4803A09F466C04F
:100F8000883A09F47FC0B4C0803C09F4A7C0883C0B
:100F900009F4A4C0883B09F48AC0AAC08091C301A7
:100FA00010C09091C2018091C101981770F5E09135
:100FB000C20181E08E0F8093C201F0E0EF55FE4F39
:100FC00080818093BB0085EC86C080939D018EC09C
:100FD000E091C20181E08E0F8093C2018091BB003D
:100FE000F0E0EF55FE4F80839091C2018091C101E6
:100FF0006EC0E091C20181E08E0F8093C2018091AA
:10100000BB00F0E0EF55FE4F80838091A00181117D
:101010006DC081E080939F0184EA61C083E080938A
:101020009E0110924B03CFCF80914B03803208F08A
:1010300051C0E0914B0381E08E0F80934B03809170
:10104000BB00F0E0E55DFC4F8083BDCF85EC809375
:10105000BC0010929E0180914B03803230F4E091ED
:101060004B03F0E0E55DFC4F108260914B0370E0B4
:10107000E0919B01F0919C018BE293E00995109225
:101080004B0336C084E080939E0110922A03109295
:101090002903E0919901F0919A0109958091290322
:1010A000811105C081E08093290310920903E0912A
:1010B0002A0381E08E0F80932A03F0E0E75FFC4F64
:1010C00080818093BB0090912A0380912903981717
:1010D00008F479CF85E88093BC000AC085EC809342
:1010E000BC0010929E0104C010929D010E946006F7
:1010F000FF91EF91BF91AF919F918F917F916F91F0
:101100005F914F913F912F910F900FBE0F901F90C5
:10111000189590E0FC01EC55FF4F2491FC01E0573D
:10112000FF4F3491FC01E458FF4FE491EE2309F4A2
:101130003CC0222339F1233091F038F42130A9F05A
:10114000223001F584B58F7D12C0273091F0283010
:10115000A1F02430B9F4809180008F7D03C080918C
:1011600080008F77809380000DC084B58F7784BD19
:1011700009C08091B0008F7703C08091B0008F7D4F
:101180008093B000F0E0EE0FFF1FEE58FF4FA591E7
:10119000B4919FB7F894611104C08C9130953823B5
:1011A00002C0EC913E2B3C939FBF0895CF93DF93F9
:1011B00090E0FC01E057FF4F2491FC01E458FF4F01
:1011C0008491882361F190E0880F991FFC01E85910
:1011D000FF4FC591D491FC01EE58FF4FA591B491FA
:1011E000611109C09FB7F894888120958223888374
:1011F000EC912E230BC0623061F49FB7F894888184
:10120000322F309583238883EC912E2B2C939FBF14
:1012100006C08FB7F894E8812E2B28838FBFDF910B
:10122000CF9108958E3008F08E508770806480933F
:101230007C0080917A00806480937A0080917A00AB
:1012400086FDFCCF809178002091790090E0922B70
:1012500008953FB7F8948091700190917101A09129
:101260007201B091730126B5A89B05C02F3F19F0FC
:101270000196A11DB11D3FBFBA2FA92F982F882716
:10128000820F911DA11DB11DBC01CD0142E0660F71
:10129000771F881F991F4A95D1F708958F929F92C3
:1012A000AF92BF92CF92DF92EF92FF926B017C01DF
:1012B0000E9429094B015C01C114D104E104F1042D
:1012C000F1F00E942909DC01CB0188199909AA09CA
:1012D000BB09883E9340A105B10570F321E0C21A15
:1012E000D108E108F10888EE880E83E0981EA11C61
:1012F000B11CC114D104E104F10419F7DDCFFF9052
:10130000EF90DF90CF90BF90AF909F908F90089517
:10131000CF93DF9300D000D000D0CDB7DEB7789464
:1013200084B5826084BD84B5816084BD85B58260EA
:1013300085BD85B5816085BD80916E00816080939B
:101340006E00109281008091810082608093810004
:101350008091810081608093810080918000816014
:10136000809380008091B10084608093B10080916F
:10137000B00081608093B00080917A008460809397
:101380007A0080917A00826080937A0080917A005E
:10139000816080937A0080917A00806880937A00DF
:1013A0001092C1001092960110929501109298012E
:1013B0001092970110929E0181E08093A0011092FB
:1013C0009F0161E082E10E94890861E083E10E945F
:1013D00089088091B9008E7F8093B9008091B9000F
:1013E0008D7F8093B90088E48093B80085E4809372
:1013F000BC0082E996E090939A018093990183E979
:1014000096E090939C0180939B011092D202809170
:10141000D802823018F098E09093D2028093D502DF
:1014200062E370E080E090E00E944E096091D90292
:101430008DEC92E00E942D0468EE73E080E090E075
:101440000E944E0960E38DEC92E00E9491040BE44F
:1014500016E4C8010197F1F760E38DEC92E00E9479
:101460009104C8010197F1F760E38DEC92E00E94CE
:10147000910483E592E00197F1F760E28DEC92E050
:101480000E9491046091D202606240E08DEC92E093
:101490000E94430684E08093D30240E06CE08DEC30
:1014A00092E00E9443060E94230712E01093D402A8
:1014B00040E066E08DEC92E00E94430640E062E08E
:1014C0008DEC92E00E9443068BE39FE10197F1F7D8
:1014D00088E08093D90260E08DEC92E00E942D04B8
:1014E000E091E001F091E1011083E091DC01F091E5
:1014F000DD011082E091DE01F091DF018FEC80834D
:101500001092E801E091E401F091E50186E080832A
:10151000E091E201F091E301808180618083E091BC
:10152000E201F091E301808188608083E091E20133
:10153000F091E301808180688083E091E201F09185
:10154000E30180818F7D808382EE92E00E94AA0475
:101550008823B1F082EE92E00E94DB04182F809382
:10156000E8026AE371E0CE0101960E94DF03612F79
:10157000CE0101960E94350789819A810E94E61169
:101580008EED92E00E94AA048823B1F08EED92E0E5
:101590000E94DB04182F8093E70263E471E0CE0120
:1015A00001960E94DF03612FCE0101960E9435074C
:1015B00089819A810E94E6118AED92E00E94AA0434
:1015C0008823B1F08AED92E00E94DB04182F80930B
:1015D000E6026CE471E0CE0101960E94DF03612F08
:1015E000CE0101960E94350789819A810E94E611F9
:1015F0008FB7F89480906D0290906E02A0906F0269
:10160000B09070028FBF0E9429090091B50210911D
:10161000B6022091B7023091B802601B710B820BA9
:10162000930B0E94400E20E034E244E759E40E940C
:101630009C109B01AC0160E070E080E89FE30E9499
:101640009C1020E030E040E752E40E94A10E20E030
:1016500030E040EA50E40E94441118160CF0E0C05B
:1016600020E030E048EC52E42093BD023093BE020B
:101670004093BF025093C00280916B0190916C0126
:10168000A0916D01B0916E01A5019401281B390B49
:101690004A0B5B0B253631054105510508F4BDC0E9
:1016A000C090C102D090C202E090C302F090C40288
:1016B000A7019601C701B6010E944911882319F0BC
:1016C0006AE571E01AC026013701E89477F82FEF38
:1016D0003FEF4FE75FE7C301B2010E94491181115B
:1016E00011C02FEF3FEF4FE75FE7C301B2010E9448
:1016F0003B0E18163CF46EE571E080ED91E00E941F
:10170000CA037DC02FEF3FEF4FE75FE4C701B6018B
:101710000E94441118161CF462E671E0EECF2FEF20
:101720003FEF4FE75FECC701B6010E943B0E87FD1C
:10173000F3CF20E030E0A901C701B6010E943B0EC3
:1017400087FF09C06DE280ED91E00E941B01F7FA6E
:10175000F094F7F8F0942AE037ED43EA5BE3C70131
:10176000B6010E9430102B013C010E9415116B0143
:101770007C010E94400E9B01AC01C301B2010E949A
:101780002F102B013C012AE0B701A60180ED91E06A
:101790000E94A2056EE280ED91E00E941B0120E014
:1017A00030E040E251E4C301B2010E94A10E2B01DE
:1017B0003C010E9415116B01E12CF12C2AE0B701CC
:1017C000A60180ED91E00E94A205C701B6010E942A
:1017D000400E9B01AC01C301B2010E942F1020E01A
:1017E00030E040E251E40E94A10E0E941511AB01CD
:1017F00060E070E02AE080ED91E00E94A20566E6DC
:1018000071E080ED91E00E94CA0380926B0190929A
:101810006C01A0926D01B0926E010E948A0194CE7B
:101820008091B9029091BA02A091BB02B091BC0222
:101830008093BD029093BE02A093BF02B093C002FA
:101840001091B20261E0812F0E94D60861E0812FE1
:101850000E94890805CF8F929F92AF92BF92CF923C
:10186000DF92EF92FF92CF931092C7011092C601C0
:1018700088EE93E0A0E0B0E08093C8019093C901A6
:10188000A093CA01B093CB012EE031E03093C501A3
:101890002093C4011092D3011092D2018093D401FD
:1018A0009093D501A093D601B093D70180E291E047
:1018B0009093D1018093D00185EC90E09093DD016D
:1018C0008093DC0184EC90E09093DF018093DE0153
:1018D00080EC90E09093E1018093E00181EC90E056
:1018E0009093E3018093E20182EC90E09093E50114
:1018F0008093E40186EC90E09093E7018093E60109
:101900001092E9011092EA011092EB011092EC01A1
:1019100080E090E00E945F0F8093E80281E090E019
:101920000E945F0F8093E70282E090E00E945F0FC9
:101930008093E60260E08EE00E94D608CAE0C09381
:10194000E2028EE08093E30260E08FE00E94D6081E
:10195000C093DE028FE08093DF0260E080E10E94AE
:10196000D608C093DA0280E18093DB021092D002A5
:101970001092CF0222E331E03093CE022093CD02C9
:101980001092D60297E29093D1028093D702C2E0E0
:10199000C093D8021092D90285EC92E09093950200
:1019A0008093940281EC92E0909393028093920250
:1019B0008DEB92E090939702809396021092B00282
:1019C0001092A8021092A9021092AA021092AB02E1
:1019D00080E090E0AFE7B3E48093AC029093AD0277
:1019E000A093AE02B093AF0284E690E0A0E0B0E036
:1019F0008093A4029093A502A093A602B093A7029D
:101A000010928F0210928E0281E090E090939102EA
:101A1000809390028093B10280E090E0A0E8BFE361
:101A20008093760290937702A0937802B093790224
:101A300080937A0290937B02A0937C02B0937D0204
:101A400010927E0210927F02109280021092810208
:101A50008093820290938302A0938402B0938502C4
:101A60008DEC9CECACECBDE38093860290938702F6
:101A7000A0938802B093890210928A0210928B027E
:101A800010928C0210928D022FB7F89480916D0203
:101A900090916E02A0916F02B09170022FBF4091A1
:101AA000A4025091A5026091A6027091A702841B26
:101AB000950BA60BB70B8093980290939902A09375
:101AC0009A02B0939B0261E083E00E94D60862E034
:101AD00082E00E94D60883E08093B202C093B302F2
:101AE00086E792E0909372028093710288E991E018
:101AF000909301018093000180916900836080933D
:101B00006900E89A8091B002811148C0E091940286
:101B1000F0919502C080D180E280F380C0929C0257
:101B2000D0929D02E0929E02F0929F02E09192027A
:101B3000F091930280819181A281B3818093A00270
:101B40009093A102A093A202B093A3028090AC0252
:101B50009090AD02A090AE02B090AF02A5019401AA
:101B6000C701B6010E944411181684F08090A802A3
:101B70009090A902A090AA02B090AB02A501940196
:101B8000C701B6010E943B0E87FF08C080929C02ED
:101B900090929D02A0929E02B0929F0281E080935B
:101BA000B00280918E0290918F02019709F43FC09C
:101BB00020918202309183024091840250918502EB
:101BC00060E070E0CB010E942F106093820270935E
:101BD0008302809384029093850220918602309143
:101BE0008702409188025091890260E070E0CB0149
:101BF0000E942F1060938602709387028093880260
:101C00009093890220918A0230918B0240918C023C
:101C100050918D0260E070E0CB010E942F10609324
:101C20008A0270938B0280938C0290938D0281E0E4
:101C300090E090938F0280938E0281E180937302F3
:101C400085E08093740286E08093750260E081E114
:101C50000E94D60860E085E00E94D60860E086E039
:101C6000CF91FF90EF90DF90CF90BF90AF909F907B
:101C70008F900C94D6080E947D0E08F481E00895A0
:101C8000E89409C097FB3EF4909580957095619516
:101C90007F4F8F4F9F4F9923A9F0F92F96E9BB27CC
:101CA0009395F695879577956795B795F111F8CF48
:101CB000FAF4BB0F11F460FF1BC06F5F7F4F8F4FB3
:101CC0009F4F16C0882311F096E911C0772321F0A9
:101CD0009EE8872F762F05C0662371F096E8862F41
:101CE00070E060E02AF09A95660F771F881FDAF798
:101CF000880F9695879597F90895990F0008550FC5
:101D0000AA0BE0E8FEEF16161706E807F907C0F081
:101D100012161306E407F50798F0621B730B840B89
:101D2000950B39F40A2661F0232B242B252B21F463
:101D300008950A2609F4A140A6958FEF811D811D03
:101D400008950E94B40E0C94250F0E94170F38F0CE
:101D50000E941E0F20F0952311F00C940E0F0C948E
:101D6000140F11240C94590F0E94360F70F3959F95
:101D7000C1F3950F50E0551F629FF001729FBB2782
:101D8000F00DB11D639FAA27F00DB11DAA1F649F1E
:101D90006627B00DA11D661F829F2227B00DA11DD1
:101DA000621F739FB00DA11D621F839FA00D611D57
:101DB000221F749F3327A00D611D231F849F600D78
:101DC000211D822F762F6A2F11249F5750409AF0A1
:101DD000F1F088234AF0EE0FFF1FBB1F661F771F2D
:101DE000881F91505040A9F79E3F510580F00C94F8
:101DF0000E0F0C94590F5F3FE4F3983ED4F3869591
:101E000077956795B795F795E7959F5FC1F7FE2B97
:101E1000880F911D9695879597F9089597F99F6773
:101E200080E870E060E008959FEF80EC0895002462
:101E30000A941616170618060906089500240A942F
:101E400012161306140605060895092E0394000CB5
:101E500011F4882352F0BB0F40F4BF2B11F460FF44
:101E600004C06F5F7F4F8F4F9F4F089557FD90586D
:101E7000440F551F59F05F3F71F04795880F97FB4E
:101E8000991F61F09F3F79F0879508951216130608
:101E90001406551FF2CF4695F1DF08C01616170637
:101EA0001806991FF1CF869571056105089408956C
:101EB000E894BB2766277727CB0197F90895F9990E
:101EC000FECF92BD81BDF89A992780B50895052E61
:101ED00097FB1EF400940E947E0F57FD07D00E94CE
:101EE000D00F07FC03D04EF40C947E0F5095409514
:101EF000309521953F4F4F4F5F4F089590958095B6
:101F0000709561957F4F8F4F9F4F08950E94F20FFC
:101F1000A59F900DB49F900DA49F800D911D11243D
:101F20000895B7FF0C94860F0E94860F821B930BB7
:101F300008952F923F924F925F926F927F928F926D
:101F40009F92AF92BF92CF92DF92EF92FF920F9348
:101F50001F93CF93DF93CDB7DEB7CA1BDB0B0FB652
:101F6000F894DEBF0FBECDBF09942A88398848880F
:101F70005F846E847D848C849B84AA84B984C884A5
:101F8000DF80EE80FD800C811B81AA81B981CE0F9C
:101F9000D11D0FB6F894DEBF0FBECDBFED01089581
:101FA000A1E21A2EAA1BBB1BFD010DC0AA1FBB1F5D
:101FB000EE1FFF1FA217B307E407F50720F0A21BCF
:101FC000B30BE40BF50B661F771F881F991F1A943C
:101FD00069F760957095809590959B01AC01BD0166
:101FE000CF010895A29FB001B39FC001A39F700DC0
:101FF000811D1124911DB29F700D811D1124911D11
:10200000089597FB072E16F4009407D077FD09D0AA
:102010000E94151007FC05D03EF4909581959F4FC6
:102020000895709561957F4F0895AA1BBB1B51E1E0
:1020300007C0AA1FBB1FA617B70710F0A61BB70B38
:10204000881F991F5A95A9F780959095BC01CD01DD
:102050000895EE0FFF1F0590F491E02D099450585C
:10206000BB27AA270E9447100C94250F0E94170F28
:1020700038F00E941E0F20F039F49F3F19F426F427
:102080000C94140F0EF4E095E7FB0C940E0FE92F5F
:102090000E94360F58F3BA17620773078407950733
:1020A00020F079F4A6F50C94580F0EF4E0950B2E61
:1020B000BA2FA02D0B01B90190010C01CA01A0019A
:1020C0001124FF27591B99F0593F50F4503E68F1F5
:1020D0001A16F040A22F232F342F4427585FF3CF36
:1020E000469537952795A795F0405395C9F77EF407
:1020F0001F16BA0B620B730B840BBAF09150A1F050
:10210000FF0FBB1F661F771F881FC2F70EC0BA0FD5
:10211000621F731F841F48F4879577956795B7955D
:10212000F7959E3F08F0B0CF9395880F08F0992758
:10213000EE0F9795879508950E94B0100C94250F87
:102140000E941E0F58F00E94170F40F029F45F3FC5
:1021500029F00C940E0F51110C94590F0C94140F7C
:102160000E94360F68F39923B1F3552391F3951B21
:10217000550BBB27AA2762177307840738F09F5FA8
:102180005F4F220F331F441FAA1FA9F335D00E2E15
:102190003AF0E0E832D091505040E695001CCAF782
:1021A0002BD0FE2F29D0660F771F881FBB1F261745
:1021B00037074807AB07B0E809F0BB0B802DBF011C
:1021C000FF2793585F4F3AF09E3F510578F00C94EB
:1021D0000E0F0C94590F5F3FE4F3983ED4F38695AD
:1021E00077956795B795F7959F5FC9F7880F911D0C
:1021F0009695879597F90895E1E0660F771F881FF8
:10220000BB1F621773078407BA0720F0621B730BAA
:10221000840BBA0BEE1F88F7E09508950E94151104
:102220006894B1110C94590F08950E943E0F88F0E4
:102230009F5798F0B92F9927B751B0F0E1F0660F8A
:10224000771F881F991F1AF0BA95C9F714C0B130CB
:1022500091F00E94580FB1E008950C94580F672F29
:10226000782F8827B85F39F0B93FCCF386957795FA
:102270006795B395D9F73EF49095809570956195E3
:102280007F4F8F4F9F4F08950E947D0E08F48FEF70
:1022900008950E947D0E880B990B08950F931F934C
:1022A000CF93DF938230910510F482E090E0E091CB
:1022B0004E03F0914F0320E030E0A0E0B0E0309713
:1022C00019F1408151810281138148175907C8F0E3
:1022D0008417950769F4109731F012960C931297B2
:1022E00013961C9327C000934E0310934F0322C0F4
:1022F0002115310519F04217530718F49A01BD0151
:10230000EF01DF01F801DBCF21153105F9F0281BC2
:10231000390B2430310580F48A819B816115710568
:1023200021F0FB019383828304C090934F03809339
:102330004E03FE01329644C0FE01E20FF31F81936B
:10234000919322503109398328833AC020914C035C
:1023500030914D03232B41F4209106013091070168
:1023600030934D0320934C032091040130910501DB
:102370002115310541F42DB73EB740910801509128
:102380000901241B350BE0914C03F0914D03E2173A
:10239000F307A0F42E1B3F0B2817390778F0AC0188
:1023A0004E5F5F4F2417350748F04E0F5F1F509365
:1023B0004D0340934C038193919302C0E0E0F0E021
:1023C000CF01DF91CF911F910F910895CF93DF93AC
:1023D000009709F481C0FC01329713821282A09108
:1023E0004E03B0914F03109781F420813181820F09
:1023F000931F20914C0330914D032817390751F555
:10240000F0934D03E0934C0367C0ED0120E030E012
:10241000CE17DF0740F44A815B819E0141155105CB
:10242000F1F0EA01F5CFD383C28340815181840F5B
:10243000951FC817D90759F488819981840F951F72
:102440000296918380838A819B8193838283211565
:10245000310529F4F0934F03E0934E033DC0E901A9
:10246000FB83EA8349915991C40FD51FEC17FD07EF
:1024700061F480819181840F951F0296E90199830F
:102480008883828193819B838A83E0E0F0E01296C7
:102490008D919C911397009719F0FD01DC01F7CF06
:1024A0008D919C9111979D012E5F3F4F820F931F3D
:1024B00020914C0330914D032817390769F4309768
:1024C00029F410924F0310924E0302C0138212821D
:1024D000B0934D03A0934C03DF91CF910895A0E0FA
:1024E000B0E0E5E7F2E10C949D0FEC01009721F4D8
:1024F000CB010E944E11B4C0FC01E60FF71F9C01F6
:1025000022503109E217F30708F4A8C0D9010D9150
:102510001C91119706171707B0F00530110508F444
:102520009BC0C80104978617970708F495C002500E
:102530001109061B170B019311936D937C93CF0127
:102540000E94E61189C05B01A01AB10A4C01800EFD
:10255000911EA0914E03B0914F03612C712CE12C80
:10256000F12C109709F446C08D919C911197A815F4
:10257000B905B1F56C0142E0C40ED11CCA14DB04EC
:1025800078F14C018A189B08640142E0C40ED11C0A
:102590001296BC9012971396AC91B5E0CB16D1046D
:1025A00040F0B282A38391828082D9016D937C93A3
:1025B00009C00E5F1F4F800F911FF9019183808327
:1025C000EB2DFA2FE114F10431F0D7011396FC93AF
:1025D000EE93129741C0F0934F03E0934E033CC03B
:1025E0006816790608F43C017D0112960D90BC91A5
:1025F000A02DB7CF80914C0390914D03881699067A
:10260000E1F466167706C8F4809104019091050103
:10261000009741F48DB79EB7409108015091090190
:10262000841B950BE817F907C8F4F0934D03E0936A
:102630004C03F901718360830FC0CB010E944E11DE
:102640007C01009759F0A801BE010E943A13CE0107
:102650000E94E611C70104C0CE0102C080E090E0F4
:10266000CDB7DEB7EEE00C94B90F81E090E0F894BE
:102670000C944A13FB01DC0102C001900D92415001
:102680005040D8F70895FB01DC0101900D92002025
:08269000E1F70895F894FFCF73
:102698008700870000005003200000000000ED06BE
:1026A800C00695019406B806A40695060000000029
:1026B8001B018800B2006801E300C100D5000000DA
:1026C80000005A06880095019401566F6C756D6577
:1026D8003A20004272656174683A200050726F7047
:1026E8006F7274696F6E733A20006E616E00696E66
:0A26F80066006F7666000D0A000010
:00000001FF
