:100000000C9453000C947B000C947B000C947B00AC
:100010000C947B000C947B000C947B000C947B0074
:100020000C947B000C947B000C947B000C947B0064
:100030000C947B000C947B000C947B000C947B0054
:100040000C94E0010C947B000C9450020C942A0256
:100050000C947B000C947B000C947B000C947B0034
:100060000C947B000C947B0000000000250028000D
:100070002B0000000000240027002A0004040404D0
:100080000404040402020202020203030303030342
:10009000010204081020408001020408102001021F
:1000A00004081020820211241FBECFEFD8E0DEBF6B
:1000B000CDBF11E0A0E0B1E0EAE9F8E002C00590B0
:1000C0000D92AE31B107D9F721E0AEE1B1E001C048
:1000D0001D92AC3CB207E1F710E0C3E5D0E004C0EC
:1000E0002197FE010E944004C235D107C9F70E9442
:1000F000CA020C944B040C940000CF93DF9390E061
:10010000FC01E057FF4F2491FC01E458FF4F84911C
:100110008823C1F090E0880F991FFC01EE58FF4F33
:10012000C591D491FC01E859FF4FA591B4919FB7B7
:10013000F8948881E22FE0958E2388838C91E823C0
:10014000EC939FBFDF91CF9108958E3008F08E50D1
:100150008770806480937C0080917A0080648093B3
:100160007A0080917A0086FDFCCF80917800209102
:10017000790090E0922B0895CF92DF92EF92FF9258
:100180000F931F93CF93DF936C017A018B01C0E033
:10019000D0E0CE15DF0581F0D8016D918D01D6013B
:1001A000ED91FC910190F081E02DC6010995892B1C
:1001B00011F02196EECF7E01C701DF91CF911F9103
:1001C0000F91FF90EF90DF90CF900895089580E019
:1001D00090E00895FC01538D448D252F30E0842F4D
:1001E00090E0821B930B541710F0CF96089501975F
:1001F0000895FC01918D828D981761F0828DDF0149
:10020000A80FB11D5D968C91928D9F5F9F73928F09
:1002100090E008958FEF9FEF0895FC01918D828DFE
:10022000981731F0828DE80FF11D858D90E00895CB
:100230008FEF9FEF0895FC01918D228D892F90E023
:10024000805C9F4F821B91098F739927089589E2E3
:1002500091E00E941B0121E0892B09F420E0822F0C
:100260000895FC01848DDF01A80FB11DA35ABF4F73
:100270002C91848D90E001968F739927848FA689A5
:10028000B7892C93A089B1898C91837080648C93F9
:10029000938D848D981306C00288F389E02D8081A8
:1002A0008F7D80830895EF92FF920F931F93CF93DA
:1002B000DF93EC0181E0888F9B8D8C8D981305C0B6
:1002C000E889F989808185FD26C0F62E0B8D10E026
:1002D0000F5F1F4F0F731127E02E8C8DE8120CC09B
:1002E0000FB607FCFACFE889F989808185FFF5CF41
:1002F000CE010E943101F1CF8B8DFE01E80FF11D7F
:10030000E35AFF4FF0829FB7F8940B8FEA89FB897D
:10031000808180620AC09FB7F894EE89FF8960836C
:10032000E889F98980818370806480839FBF81E040
:1003300090E0DF91CF911F910F91FF90EF90089582
:10034000CF93DF93EC01888D8823C9F0EA89FB897C
:10035000808185FD05C0A889B9898C9186FD0FC073
:100360000FB607FCF5CF808185FFF2CFA889B98948
:100370008C9185FFEDCFCE010E943101E7CFDF9157
:10038000CF91089580E090E0892B29F00E94270109
:1003900081110C9400000895009769F0FC01019010
:1003A0000020E9F73197AF01481B590BBC0189E2E6
:1003B00091E00C94BC0080E090E008950E94460417
:1003C0001F920F920FB60F9211242F933F938F938A
:1003D0009F93AF93BF938091250190912601A091A7
:1003E0002701B09128013091240123E0230F2D37FC
:1003F00020F40196A11DB11D05C026E8230F029629
:10040000A11DB11D20932401809325019093260105
:10041000A0932701B09328018091200190912101A0
:10042000A0912201B09123010196A11DB11D8093DD
:10043000200190932101A0932201B0932301BF9149
:10044000AF919F918F913F912F910F900FBE0F9081
:100450001F9018951F920F920FB60F9211242F9391
:100460003F934F935F936F937F938F939F93AF933C
:10047000BF93EF93FF9389E291E00E943101FF91D6
:10048000EF91BF91AF919F918F917F916F915F910C
:100490004F913F912F910F900FBE0F901F90189585
:1004A0001F920F920FB60F9211242F938F939F9349
:1004B000EF93FF93E0913901F0913A018081E0914F
:1004C0003F01F091400182FD12C090818091420174
:1004D0008F5F8F7320914301821751F0E0914201A9
:1004E000F0E0E75DFE4F958F8093420101C080816F
:1004F000FF91EF919F918F912F910F900FBE0F90D1
:100500001F901895CF93E9E2F1E01382128288EEF2
:1005100093E0A0E0B0E084839583A683B78384E072
:1005200091E09183808385EC90E09587848784ECCB
:1005300090E09787868780EC90E0918B808B81ECB0
:1005400090E0938B828B82EC90E0958B848B86EC91
:1005500090E0978B868B118E128E138E148E8EE008
:100560000E947D00EAECF1E0CAE0C0838EE0818366
:100570008FE00E947D00E8ECF1E0C0838FE0818392
:1005800080E10E947D00E6ECF1E0C08380E18183A0
:10059000CF910895CF93DF93CDB7DEB7A1970FB674
:1005A000F894DEBF0FBECDBF789484B5826084BD61
:1005B00084B5816084BD85B5826085BD85B5816067
:1005C00085BD80916E00816080936E0010928100E5
:1005D00080918100826080938100809181008160A0
:1005E0008093810080918000816080938000809161
:1005F000B10084608093B1008091B00081608093ED
:10060000B00080917A00846080937A0080917A00B3
:10061000826080937A0080917A00816080937A0072
:1006200080917A00806880937A001092C100E091F6
:100630003901F0913A0182E08083E0913501F09137
:1006400036011082E0913701F09138018FEC808300
:1006500010924101E0913D01F0913E0186E08083DE
:10066000E0913B01F0913C01808180618083E091C9
:100670003B01F0913C01808188608083E0913B01E7
:10068000F0913C01808180688083E0913B01F09192
:100690003C0180818F7D80838CEFE82E83E0F82EF3
:1006A0009CEF892E93E0992EA12CB12C2AE0422EAA
:1006B000512C612C712C8091C7010E94A5009C01D6
:1006C00080911E0190911F012817390721F0F9012F
:1006D000E81BF90B02C0E0E0F0E06091C60170E0B9
:1006E000C7010E9418046E177F0708F043C03093BB
:1006F0001F0120931E0182E191E00E94CC018091B4
:10070000C7010E94A5002091C601422F50E060E081
:1007100070E09A01AB012150310941095109DC0116
:100720000E94DC03A50194010E94BD03DA01C90106
:100730000196A11DB11D9C01AD013327442755270A
:1007400019A28E010F5D1F4FCA01B901A3019201C9
:100750000E94E703605DF80162938F012115310566
:100760004105510589F7CF010E94CC018AE191E052
:100770000E94CC010E94C2019ECF052E97FB1EF461
:1007800000940E94D40357FD07D00E94E70307FCA2
:1007900003D04EF40C94D403509540953095219598
:1007A0003F4F4F4F5F4F089590958095709561959D
:1007B0007F4F8F4F9F4F08950E940904A59F900D72
:1007C000B49F900DA49F800D911D11240895A1E266
:1007D0001A2EAA1BBB1BFD010DC0AA1FBB1FEE1FBB
:1007E000FF1FA217B307E407F50720F0A21BB30B06
:1007F000E40BF50B661F771F881F991F1A9469F782
:1008000060957095809590959B01AC01BD01CF01DD
:100810000895A29FB001B39FC001A39F700D811DD9
:100820001124911DB29F700D811D1124911D0895F9
:1008300097FB072E16F4009407D077FD09D00E948D
:100840002C0407FC05D03EF4909581959F4F0895A8
:10085000709561957F4F0895AA1BBB1B51E107C09E
:10086000AA1FBB1FA617B70710F0A61BB70B881F40
:10087000991F5A95A9F780959095BC01CD010895CF
:10088000EE0FFF1F0590F491E02D099481E090E0B8
:0A089000F8940C944B04F894FFCF89
:10089A00000000005301BC00EA00A0011B01F9009E
:0E08AA000D01506F7469333A20000D0A0000F2
:00000001FF
